:020000040800F2
:10000000380400209D0100088F0300082703000822
:100010008D03000811020008390A000800000000E2
:10002000000000000000000000000000E1070008E0
:1000300013020008000000009D0300089908000852
:10004000B7010008B7010008B7010008B7010008B0
:10005000B7010008B7010008B7010008B7010008A0
:10006000B7010008B7010008B7010008B701000890
:10007000B7010008B7010008B7010008B701000880
:10008000B7010008B7010008B7010008B701000870
:10009000B7010008B7010008B7010008B701000860
:1000A000B7010008B7010008B7010008B701000850
:1000B000B7010008B7010008B7010008B701000840
:1000C000B7010008B7010008B7010008B701000830
:1000D000B7010008B7010008B7010008B701000820
:1000E000B7010008B7010008B7010008B701000810
:1000F000B7010008B7010008B7010008B701000800
:10010000B7010008B7010008B7010008B7010008EF
:10011000B7010008B7010008B7010008B7010008DF
:10012000B7010008B7010008B7010008B7010008CF
:10013000B7010008B7010008B7010008B7010008BF
:10014000B7010008B7010008B7010008B7010008AF
:10015000B7010008B7010008B7010008B70100089F
:10016000B7010008B7010008B7010008B70100088F
:10017000B7010008B7010008B7010008B70100087F
:10018000B7010008B7010008DFF80CD000F02EF826
:1001900000480047390C0008380400200648804712
:1001A00006480047FEE7FEE7FEE7FEE7FEE7FEE75C
:1001B000FEE7FEE7FEE7FEE79D080008890100086C
:1001C00030B50B46014600202022012409E021FA27
:1001D00002F59D4205D303FA02F5491B04FA02F524
:1001E0002844151EA2F10102F1DC30BD064C074D7A
:1001F00006E0E06840F0010394E8070098471034F7
:10020000AC42F6D3FFF7C4FFCC0C0008EC0C00089E
:10021000FEE770470A484FF47A710068B0FBF1F0CE
:10022000401EB0F1807F0AD24FF0E0214861054ABC
:10023000F02082F8140D00208861072008617047C3
:10024000100000200FE000E0024908600868002864
:10025000FCD1704708000020F0B5002301240327DB
:100260000D6804FA03F21540954242D1D0F800C05F
:100270005E0007FA06F52CEA050CC0F800C091F8FC
:1002800004C0D0F800E00CFA06FC4CEA0E0CC0F8F2
:1002900000C091F804C0BCF1010F02D0BCF1020F04
:1002A0001FD1D0F808C02CEA050CC0F808C091F89E
:1002B00005C0D0F808E00CFA06FC4CEA0E0CC0F8B9
:1002C00008C0D0F804C02CEA020CC0F804C0426890
:1002D00091F806C00CFA03FC1FFA8CFC42EA0C02EF
:1002E0004260C268AA43C260CA79C568B2402A4364
:1002F000C2605B1C102BB3D3F0BD4B07DB0E9A40E2
:10030000C90810B500EB8100016A0F249C40A1438D
:100310000162016A1143016210BD41837047426965
:100320004A4042617047FEE71CB50121042000F0FD
:1003300037F800208DF8040001218DF807108DF8A2
:1003400005000220009069460148FFF785FF1CBDAB
:10035000000802401CB50121042000F021F8012012
:100360008DF8040000218DF806108DF80700064C6A
:100370008DF80510009069462046FFF76DFF0121BA
:100380002046FFF7CAFF1CBD00080240FEE7704789
:10039000014908627047000000000E4270470000EB
:1003A000044A0029116801D0014300E08143116033
:1003B0007047000030380240044A0029116801D01B
:1003C000014300E081431160704700004038024063
:1003D000044A0029116801D0014300E08143116003
:1003E000704700004438024070B5204A1168204C24
:1003F00011F00C0104D06610042903D0082903D0A1
:1004000004601BE0066019E01849091F0B68C3F37C
:1004100080550B6803F03F0315B1B6FBF3F301E021
:10042000B4FBF3F30C680968C4F388146343C1F3A5
:100430000141491C4900B3FBF1F1016011680F2330
:1004400003EA11110B4B5C5C0168E14041601468E8
:10045000072505EA94241C5D21FA04F484601268DF
:1004600005EA52329A5CD140C16070BD0838024042
:100470000024F40024000020024600205109012934
:100480000BD002290CD00849096802F01F02012391
:1004900093400B4200D00120704703497439F3E7C1
:1004A0000149091FF0E700007438024005490022A5
:1004B0000A700A70012802D0042801D105200870B2
:1004C0007047000070380240014908607047000022
:1004D0003C0E4742C0F30121032907D1074A1168A6
:1004E00021F4F813064901401943116003496831AA
:1004F0000A68C0F30B0002430A60704708380240E4
:10050000FFFCFF0F010901EB810100F00F0000EB80
:100510004100C0B27047002103E0491C0A38C9B24B
:10052000C0B20A28F9D2090740EA116070470000FA
:1005300008B5002000900C480168490612D44FF01D
:10054000FF31016083130168009A01F04001521CE1
:1005500000929A4201D00029F5D00068400601D4EB
:10056000002008BD012008BD0C2800400248016899
:1005700021F08001016070470C28004010B50C4646
:100580000E4909680E4A11400A0CE270C1F30423B7
:10059000637001F03F03A370C1F342312170002862
:1005A0000BD11046FFF7AEFFE0706078FFF7AAFFAF
:1005B0006070A078FFF7A6FFA07010BD042800406F
:1005C0003FFFFF0010B50C460F4909680F4A114064
:1005D000C1F305422270C1F30623637001F07F036B
:1005E000A370402303EA1141E17000280BD11046AB
:1005F000FFF788FF20706078FFF784FF6070A078B5
:10060000FFF780FFA07010BD002800407F7F7F00B3
:1006100070B5124D04460026CA2028605320286079
:10062000FFF786FFA8B10D481C38016821F0400192
:10063000016001682268114301600848A16814380C
:1006400001600168A28841EA02410160FFF78EFF64
:100650000126FF202860304670BD0000242800409D
:100660003EB501210807FFF7A7FE0120FFF790FE26
:10067000002000F02BF84AF6AA25A84223D001203A
:10068000FFF714FF4120FFF7F7FE0028FAD04FF4E0
:100690008070FFF71FFF7F200190FF200024029051
:1006A00000946846FFF7B4FF0120FFF70DFF0648EE
:1006B0000146047044708470002000F011F829464F
:1006C000002000F083F83EBD0C00002008B503496F
:1006D00001EB80000090006808BD00005028004039
:1006E0002DE9F041244F0C4602004FF0000620781F
:1006F0003A6831464FEA426204D0002A15DAFFF721
:1007000001FF13E0002A00DBE170FFF704FF05049E
:100710006078FFF700FF45EA0025A078FFF7FBFEB1
:100720000543E07845EA00450AE0E170A0782178C9
:1007300040EA01456078E178000240EA0140054363
:100740000D4CCA201C34206053202060FFF7F0FEBF
:1007500068B10A480540084808380560FFF706FFF9
:100760003868800602D400F00BF800B10126FF20A3
:1007700020603046BDE8F081082800407F7F7F0080
:1007800018B5002010490090CA2008605320086066
:100790000D481838026822F0A00202604FF40034BD
:1007A0000268009B02F020025B1C0093A34201D070
:1007B000002AF5D00068800601D5012000E0002065
:1007C000FF220A6018BD00002428004008B5034A33
:1007D00002EB80000090016008BD0000502800403E
:1007E000704700000CB500202749019000900A686E
:1007F00042F480320A604FF4A0430A6802F40032E7
:100800000092019A521C0192009A12B9019A9A42DE
:10081000F3D10A68920334D5012000901A48403081
:10082000026842F0805202601848026842F4404276
:1008300002601548083002680260026842F4004213
:100840000260026842F4A0520260031F104A1A605C
:100850000A6842F080720A600A689201FCD50D4A6B
:1008600040F205711160016821F003010160016827
:1008700041F0020101600168C1F381010229FAD14E
:100880000CBD00900CBD000000380240007000401C
:1008900008544007003C024000F02EB8124810B542
:1008A000016841F4700101601048016841F00101E4
:1008B00001600E4A00210832116002680C4B1A4098
:1008C0000260031D0B4A1A60026822F48022026053
:1008D00006480C300160FFF785FF03494FF00060C8
:1008E0008039086010BD000088ED00E0003802404B
:1008F000FFFFF6FE1030002403480168002902D0F3
:100900000168491E016070470800002000298189A4
:1009100002D041F4005101E021F40051818170477F
:100920001CB501210846FFF73BFD02208DF80400AD
:1009300000208DF8060001218DF807108DF80500C4
:1009400048020B4C009069462046FFF785FC2015B5
:10095000009069462046FFF77FFC072209212046C8
:10096000FFF7CBFC07220A212046FFF7C6FC1CBD7F
:10097000000002400246002012880A4200D00120F6
:10098000704700007FB50446008A0D4620F44051B0
:10099000E88808432082A08941F20C618843A98835
:1009A0002A8911436A8902431143A181A08A20F454
:1009B0004071A8890843A0826846FFF715FD1A48D0
:1009C000844202D01948844201D1039800E0029881
:1009D000A189090400EBC00101EB0010296801D5D1
:1009E000490000E08900B0FBF1F26420B2FBF0F1B5
:1009F00009010B096FF018056B4302EB8302A38911
:100A00001D044FF0320306D503EBC202B2FBF0F037
:100A100000F0070005E003EB0212B2FBF0F000F07B
:100A20000F00084320817FBD0010014000140140E9
:100A3000C1F3080181807047FEE700001FB5012166
:100A40001020FFF7C5FCFFF76BFF4FF4E13000907B
:100A50000020ADF80800ADF804000C21074CADF8FB
:100A60000600ADF80A10ADF80C0069462046FFF705
:100A700089FF01212046FFF749FF1FBD00100140FB
:100A80000FB4054B10B503A9044A029800F018F8FA
:100A900010BC5DF814FB0000150C000834000020A9
:100AA00002E008C8121F08C1002AFAD17047704737
:100AB000002001E001C1121F002AFBD17047000095
:100AC0002DE9FF4F89B09B460446002506E0252806
:100AD0000BD05A460B999047641C6D1C2078002857
:100AE000F5D10DB02846BDE8F08F0027B8460122A9
:100AF000474900E0074314F8013F203B02FA03F0A6
:100B00000842F7D120782E2819D114F8010F47F0A8
:100B100004072A280ED06FF02F022078A0F13001B0
:100B200009290CD808EB880102EB410100EB010810
:100B3000641CF2E70A98641C50F8048B0A90207831
:100B40000028CED0642808D0692806D075281ED089
:100B50005A460B9990476D1C58E00A994FF00A09C4
:100B600001C90A91002802DA40422D2102E039052C
:100B700004D52B218DF82010012103E0F90704D0C2
:100B80002021F7E78A4608AE0DE00021FAE70A992E
:100B90004FF00A0901C90A91F7E74946FFF710FB30
:100BA000303106F8011D0028F7D1ADEB060000F149
:100BB0002009780701D44FF00108C84502DDA8EBF1
:100BC000090000E000208046002706E008A85A46F9
:100BD000C05D0B9990476D1C7F1C5745F6DB04E008
:100BE00030205A460B9990476D1CB8F10001A8F1CE
:100BF0000108F5DC05E016F8010B5A460B99904701
:100C00006D1CB9F10001A9F10109F4DC641C65E770
:100C10000928010070B5074D0446C1B22846FFF708
:100C200007FF80212846FFF7A5FE0028F9D02046BF
:100C300070BD000000100140FFF7ECFAFFF78AFBDF
:100C4000FFF772FBFFF7FAFEFFF70AFD13A0FFF7AD
:100C500017FF164C164E251D40F2E73713490020AA
:100C6000FFF7B0FC11490020091DFFF787FCE97868
:100C7000AB786A780FA001F5FA61FFF701FFA3785E
:100C8000627821780EA0FFF7FBFE01213046FFF7C6
:100C900046FB3846FFF7D8FAE0E7000053544D33DF
:100CA0003220525443B6C1C8A10D0A0000000020F2
:100CB0000008024025642D25642D256420000000D5
:100CC00025643A25643A25640D0A0000EC0C0008FE
:100CD0000000002038000000A00A0008240D0008D1
:100CE0003800002000040000B00A000800000000E6
:100CF000000000000000000000000000007A030A6D
:100D000000000000000000000102030406070809BB
:100D100000000000010203040102030406070809A1
:040D200000000000CF
:040000050800018965
:00000001FF
