:020000040800F2
:10000000180400209D0100088B030008E902000885
:1000100089030008E5010008D5040008000000007D
:10002000000000000000000000000000A90300081C
:10003000E7010008000000008D03000861040008CB
:10004000B7010008B7010008B7010008B7010008B0
:10005000B7010008B7010008B7010008B7010008A0
:10006000B7010008B7010008B7010008B701000890
:10007000B7010008B7010008B7010008B701000880
:10008000B7010008B7010008B7010008B701000870
:10009000B7010008B7010008B7010008B701000860
:1000A000B7010008B7010008B7010008B701000850
:1000B000B7010008B7010008B7010008B701000840
:1000C000B7010008B7010008B7010008B701000830
:1000D000B7010008B7010008B7010008B701000820
:1000E000B7010008B7010008B7010008B701000810
:1000F000B7010008B7010008B7010008B701000800
:10010000B7010008B7010008B7010008B7010008EF
:10011000B7010008B7010008B7010008B7010008DF
:10012000B7010008B7010008B7010008B7010008CF
:10013000B7010008B7010008B7010008B7010008BF
:10014000B7010008B7010008B7010008B7010008AF
:10015000B7010008B7010008B7010008B70100089F
:10016000B7010008B7010008B7010008B70100088F
:10017000B7010008B7010008B7010008B70100087F
:10018000B7010008B7010008DFF80CD000F018F83C
:1001900000480047F504000818040020064880477E
:1001A00006480047FEE7FEE7FEE7FEE7FEE7FEE75C
:1001B000FEE7FEE7FEE7FEE76504000889010008A8
:1001C000064C074D06E0E06840F0010394E80700A4
:1001D00098471034AC42F6D3FFF7DAFF1C0500084D
:1001E0003C050008FEE770470A484FF47A71006842
:1001F000B0FBF1F0401EB0F1807F0AD24FF0E02159
:100200004861054AF02082F8140D0020886107201B
:1002100008617047040000200FE000E00249086018
:1002200008680028FCD1704700000020F0B50023CA
:10023000012403270D6804FA03F21540954242D1C8
:10024000D0F800C05E0007FA06F52CEA050CC0F8ED
:1002500000C091F804C0D0F800E00CFA06FC4CEAAB
:100260000E0CC0F800C091F804C0BCF1010F02D020
:10027000BCF1020F1FD1D0F808C02CEA050CC0F861
:1002800008C091F805C0D0F808E00CFA06FC4CEA6A
:100290000E0CC0F808C0D0F804C02CEA020CC0F85C
:1002A00004C0426891F806C00CFA03FC1FFA8CFCEB
:1002B00042EA0C024260C268AA43C260CA79C568B9
:1002C000B2402A43C2605B1C102BB3D3F0BD024680
:1002D000002012690A4200D0012070474183704714
:1002E00042694A4042617047FEE700001CB50121A7
:1002F000042000F04DF800208DF8040001218DF855
:1003000007108DF805000220009069460148FFF7AC
:100310008DFF1CBD0008024010B50C4C0221204688
:10032000FFF7D5FF38B90A20FFF778FF02212046F2
:10033000FFF7CDFF08B1002010BD02212046FFF7D6
:10034000C6FF0028F9D0012010BD000000080240BF
:100350001CB50121042000F01BF801208DF80400D9
:1003600000218DF806108DF80700064C8DF8051059
:10037000009069462046FFF759FF01212046FFF70C
:10038000ADFF1CBD00080240FEE77047704700004B
:10039000044A0029116801D0014300E08143116043
:1003A0007047000030380240704700000CB5002054
:1003B0002749019000900A6842F480320A604FF4A5
:1003C000A0430A6802F400320092019A521C019282
:1003D000009A12B9019A9A42F3D10A68920334D56D
:1003E000012000901A484030026842F080520260BA
:1003F0001848026842F4404202601548083002681A
:100400000260026842F400420260026842F4A052B4
:100410000260031F104A1A600A6842F080720A6084
:100420000A689201FCD50D4A40F20571116001681D
:1004300021F003010160016841F0020101600168DF
:10044000C1F381010229FAD10CBD00900CBD00005E
:10045000003802400070004008544007003C024051
:1004600000F02EB8124810B5016841F47001016027
:100470001048016841F0010101600E4A0021083274
:10048000116002680C4B1A400260031D0B4A1A608F
:10049000026822F48022026006480C300160FFF7F7
:1004A00085FF03494FF000608039086010BD0000EF
:1004B00088ED00E000380240FFFFF6FE1030002417
:1004C00003480168002902D00168491E0160704795
:1004D00000000020FEE702E008C8121F08C1002A41
:1004E000FAD170477047002001E001C1121F002AB5
:1004F000FBD17047FFF778FEFFF72AFFFFF7F6FE04
:10050000054C00BFFFF708FF0128FBD10121204661
:10051000FFF7E6FEF6E70000000802403C05000891
:100520000000002018000000D60400085405000850
:100530001800002000040000E6040008000000008D
:10054000007A030A0000000000000000010203041A
:040550000607080989
:040000050800018965
:00000001FF
