:020000040800F2
:10000000B00C00209D010008171D00082B080008F7
:10001000151D000819070008C12200080000000093
:100020000000000000000000000000008120000827
:100030001B07000800000000191D000839210008F6
:10004000B7010008B7010008B7010008B7010008B0
:10005000B7010008B7010008B7010008B7010008A0
:10006000B7010008B7010008B7010008B701000890
:10007000B7010008B7010008B7010008B701000880
:10008000B7010008B7010008B7010008B701000870
:10009000B7010008B7010008B7010008B701000860
:1000A000B7010008B7010008B7010008B701000850
:1000B000B7010008B7010008B7010008B701000840
:1000C000B7010008B7010008B7010008B701000830
:1000D000B7010008B7010008B7010008B701000820
:1000E000B7010008B7010008B7010008B701000810
:1000F000B7010008B7010008B7010008B701000800
:10010000B7010008B7010008B7010008B7010008EF
:10011000B7010008B7010008B7010008B7010008DF
:10012000B7010008B7010008B7010008B7010008CF
:10013000B7010008B7010008B7010008B7010008BF
:10014000B7010008B7010008B7010008B7010008AF
:10015000B7010008B7010008B7010008B70100089F
:10016000B7010008B7010008B7010008B70100088F
:10017000B7010008B7010008B7010008B70100087F
:10018000B7010008B7010008DFF80CD000F0A2FAB0
:10019000004800470D2C0008B00C0020064880479E
:1001A00006480047FEE7FEE7FEE7FEE7FEE7FEE75C
:1001B000FEE7FEE7FEE7FEE73D21000889010008B3
:1001C0002DE9FE4F804681EA0300C00F0C460090E7
:1001D00021F0004123F00045B8EB0200A94105D20F
:1001E0004046214690461C460B46024623F00040FE
:1001F000104347D0270DC7F30A00C3F30A510290FA
:10020000401A019040286BDAC3F3130040F4801BBE
:100210000098924620B10023D2EB030A63EB0B0B4C
:1002200001985946C0F14002504600F036F90646A2
:100230000D4650465946019A00F03EF910EB080071
:100240006141002487EA115284EAE7731A4340D0DF
:10025000009A62B3019A012A4FEA075215DC001B8B
:1002600061EB02014FF0004202EA0752CDE9004281
:10027000001C41F5801132462B4600F03EF903B0D8
:10028000BDE8F08F40462146F9E7001B61EB020113
:10029000001C41F5801300185B412018A2F50017DF
:1002A00047EB030140EAD570B6196D4111E06D08C6
:1002B0004FEA360645EAC0754FEA0752001B61EB6C
:1002C0000201001C41F5801149084FEA3000001975
:1002D000514132462B4603B0BDE8F04F00F0FEB866
:1002E0000098012240000023D0EB020263EBE07390
:1002F000009821464FEAE074B8EB000061EB04017E
:10030000E9E783F000435BE781F0004158E72DE91E
:10031000FE4F81EA030404F0004421F00041009400
:100320004FF0000B23F0004350EA01045ED052EA84
:1003300003045BD0C3F30A54C1F30A552C44A4F25E
:10034000F3340194A0FB0254C1F3130141F4801172
:10035000C3F3130343F4801301FB024400FB034E79
:10036000840A970A44EA815447EA8357A4FB076842
:1003700002958D0A05FB07854FEA932C04FB0C546C
:100380002705029D4FEA065847EA1637B5EB0805E0
:100390006EEB070C870E920E47EA811742EA831232
:1003A000A7FB0201B6EB0B0164EB00042B0D43EA43
:1003B0000C335E1844EB1C50DA465146E7FB020151
:1003C000C5F313044FEA0B3343EA14534FEA0432E4
:1003D000019C43EA0603A4F10C040294009CCDE9BD
:1003E00000B400F08AF803B0BDE8F08F00200146A9
:1003F000F9E70EB540F2334102910021CDE9001139
:100400000A460B4600F079F803B000BD30B50B4644
:10041000014600202022012409E021FA02F59D4234
:1004200005D303FA02F5491B04FA02F52844151E08
:10043000A2F10102F1DC30BD2DE9F05F054600209C
:1004400092469B4688460646814640241BE0284645
:1004500041464746224600F04FF953465A46C01AD5
:10046000914110D311461846224600F016F82D1A75
:1004700067EB01084F4622460120002100F00DF8ED
:1004800017EB00094E41201EA4F10104DFDC4846B1
:1004900031462A464346BDE8F09F202A04DB203A35
:1004A00000FA02F1002070479140C2F1200320FAC7
:1004B00003F3194390407047202A06DBCB17203AFC
:1004C00041FA02F043EAE07306E041FA02F3D04059
:1004D000C2F12002914008431946704710B5141E1E
:1004E00073F1000408DA401C41F1000192185B41ED
:1004F0001A4301D120F0010010BD2DE9F04D9246C4
:100500009B4611B1B1FA81F202E0B0FA80F22032DA
:100510009046FFF7C2FF04460F4640EA0A0041EA50
:100520000B0153465A46084313D0114653EA0100C3
:1005300019D0C8F14002504600F0DEF805460E46DC
:10054000504659464246FFF7A8FF084305D0012010
:1005500004E020463946BDE8F08D0020054346EA18
:10056000E0762C4337430A986305E40AA0EB0800C1
:100570000022FD0A44EA47540A3002D50020014611
:10058000E9E7010510196941DDE9084500196941EC
:10059000BDE8F04DA2E72DE9F04D81EA030404F037
:1005A000004B21F0004514464FF0000A23F00041B3
:1005B00050EA050220D054EA01021DD0C5F30A57C3
:1005C0000246C5F31303C1F31300C1F30A5640F406
:1005D000801543F48013A7EB0608101BD64608F2DB
:1005E000FD3873EB050002D308F1010801E0921811
:1005F0005B41B8F1000F03DA00200146BDE8F08D41
:1006000000204FF48011064684460EE0171B73EB62
:10061000050705D3121B63EB050306434CEA010CE7
:1006200049084FEA300092185B4150EA0107EDD1CA
:1006300052EA030012D082EA040083EA050108436B
:1006400005D0101BAB4106D20122002306E0002298
:100650004FF0004302E06FF0010253101AEB060066
:100660004CEB085110EB0A0041EB0B01BDE8F04DDB
:10067000FFF734BFC1F30A52C1F3130140F2FF3355
:1006800041F480119A4202DA00200146704740F29C
:1006900033439A42A2F2334202DC524200F02CB8B9
:1006A000FFF7FBBE30B5041E71F1000404DB4FF010
:1006B0000044404264EB0101141E73F1000405DBA9
:1006C0001C464FF00043524263EB0403994208BFBB
:1006D000904230BD064C074D06E0E06840F0010353
:1006E00094E8070098471034AC42F6D3FFF750FD6A
:1006F0001C8700083C870008202A04DB203A21FAE6
:1007000002F00021704721FA02F3D040C2F120022A
:100710009140084319467047FEE770470A484FF476
:100720007A710068B0FBF1F0401EB0F1807F0AD210
:100730004FF0E0214861054AF02082F8140D0020B6
:100740008861072008617047780000200FE000E012
:100750000249086008680028FCD1704700000020AA
:10076000F0B50023012403270D6804FA03F21540B5
:10077000954242D1D0F800C05E0007FA06F52CEA97
:10078000050CC0F800C091F804C0D0F800E00CFAE5
:1007900006FC4CEA0E0CC0F800C091F804C0BCF195
:1007A000010F02D0BCF1020F1FD1D0F808C02CEA13
:1007B000050CC0F808C091F805C0D0F808E00CFAA4
:1007C00006FC4CEA0E0CC0F808C0D0F804C02CEAB5
:1007D000020CC0F804C0426891F806C00CFA03FC91
:1007E0001FFA8CFC42EA0C024260C268AA43C26053
:1007F000CA79C568B2402A43C2605B1C102BB3D3D0
:10080000F0BD4B07DB0E9A40C90810B500EB810024
:10081000016A0F249C40A1430162016A11430162F5
:1008200010BD4183704701837047FEE71CB501216D
:10083000042001F073FA00208DF8040001218DF8E6
:1008400007108DF805000220009069460148FFF767
:1008500087FF1CBD000802402DE9F041204C00211B
:10086000A089401E83B26089401E82B2084600F013
:10087000F5FC1C48018821F040010180018841F409
:1008800000610180018841F040010180164EC513CE
:100890007583A288134997B20023B4F80CE06289EB
:1008A000083101F1040C02FB0EF205E0ACF8007017
:1008B0000C88A407FCD55B1C9A42F7D80A8812065C
:1008C000FCD43583018821F040010180018821F4A6
:1008D00000610180018841F040010180BDE8F081A4
:1008E0009C080020003C00400000024008B50023A6
:1008F00041F288310DE000BFADF8003005E000BFE7
:10090000BDF80020521CADF80020BDF800208A423E
:10091000F6D3401EF0D208BD2DE9F05F0023203A47
:1009200002F0FF0B284A824689464FF400401C46DD
:1009300019465083DFF894E0254EDEF8000026E0EB
:100940000768DFF890C00BFB0272BCF80070BCF8BF
:1009500004C09D5C0022BFB21FFA8CFC5FEAC57820
:1009600002D026F8147001E026F814C0641C491C5B
:10097000B0F804806D0889B2A4B2884501D1002185
:1009800003E0521C92B2082AE8D35B1C9BB2028996
:100990009A42D5D8C288A9F1010111448BB281884D
:1009A000AAF10100084482B274464946504600F05C
:1009B00055FC20688188C088BDE8F05F414389B25A
:1009C000034801F019B90000000002407000002047
:1009D0009C0000209C0800202DE9F05FDFF8D0800B
:1009E00083468A46D8F804000023177805890668EC
:1009F00019465C1C05FB04FC16F80CC0BC4508D16C
:100A000004FB056492F801C06478644501D19946FD
:100A100004E09B1C44899BB29C42EAD80022134606
:100A2000C646244E27E00768DFF88CC009FB047433
:100A3000BCF80070BCF804C01D5D0024BFB21FFAF2
:100A40008CFC00BF5FEAC57802D026F8127001E086
:100A500026F812C0521C491CB0F804806D0889B2F7
:100A600092B2884501D1002103E0641CA4B2082C95
:100A7000E8D35B1C9BB204899C42D4D8C288AAF1FB
:100A8000010111448BB28188ABF10100084482B2AC
:100A900074465146584600F0E1FB60688188C08882
:100AA000BDE8F05F414389B2024801F0A5B80000FB
:100AB000700000209C0000209C08002030B50546F6
:100AC000094887B00C46007A8DED000B50B107A1A4
:100AD00002A801F019FC02AA2146284600F02CF8D1
:100AE00007B030BD03A1F3E79C080020252A2E2A79
:100AF0006C66000025302A2E2A6C66007FB51E46E3
:100B0000094B05460C46187A1346324648B107A1F0
:100B1000684601F0F9FB6A462146284600F00CF8C9
:100B20007FBD03A1F4E700009C080020252A640093
:100B300025302E2A640000002DE9F0411546884634
:100B400004460A4F0A4E08E041462046FFF7E4FEFD
:100B500038686D1C8088204484B27089A04202D914
:100B60002A78002AF0D1BDE8F08100007000002052
:100B70009C0800202DE9F04114460F4605460E4E14
:100B800015E07F2A09D839462846FFF7C5FE3068A8
:100B9000641C8088284485B209E0224639462846EC
:100BA000FFF71AFF7068A41C8088284485B2227859
:100BB000002AE6D1BDE8F081700000202DE9F84F51
:100BC00081465542002602201E4F884600EB450410
:100BD000A9EB05003A6808EB060A00901FFA8AF1B3
:100BE00080B200F0EDF909EB050B1FFA8AF11FFA4C
:100BF0008BF03A6800F0E4F9A8EB060A1FFA8AF1D4
:100C00001FFA8BF03A6800F0DBF900981FFA8AF1BE
:100C10003A6880B200F0D4F92046B44208DC761C71
:100C200000EB4604641CF54202D1A84200DC00201F
:100C3000A84203DD6D1C04EB4504641C002DC7DDD8
:100C4000BDE8F88F9C0800202DE9F05F00EE102A27
:100C500080465742F8EEC00A00EE103A022000EB40
:100C60004704B8EEC00A00256C480E462DED028BF5
:100C70009A4267DD80EE808A4FEA000900EE105A42
:100C8000A8EB070BD9F80020B8EEC00AC0EE080A9E
:100C9000BCEEE00A10EE100A304481B21FFA8BF06D
:100CA00000F08EF900EE105A08EB070AD9F8002080
:100CB000B8EEC00AC0EE080ABCEEE00A10EE100A58
:100CC000304481B21FFA8AF000F07AF900EE105A2F
:100CD000D9F80020B8EEC00AC0EE080ABCEEE00A5F
:100CE00010EE100A301A81B21FFA8AF000F068F98B
:100CF00000EE105AD9F80020B8EEC00AC0EE080A7B
:100D0000BCEEE00A10EE100A301A81B21FFA8BF026
:100D100000F056F92046AC4208DC6D1C00EB45049F
:100D2000641CEF4202D1B84200DC0020B84203DD6F
:100D30007F1C04EB4704641C002F9FDDBDEC028B7D
:100D4000BDE8F09F80EE208A5F420025814600BF0B
:100D500000EE105A06EB070A1FFA8AF1B8EEC00A35
:100D6000D9F80020C0EE080ABCEEE00A10EE100A26
:100D7000A8EB000080B200F023F900EE105A1FFA31
:100D80008AF1D9F80020B8EEC00AC0EE080ABCEE1D
:100D9000E00A10EE100A404480B200F011F900EEB3
:100DA000105AA6EB070A1FFA8AF1B8EEC00AD9F862
:100DB0000020C0EE080ABCEEE00A10EE100A404423
:100DC00080B200F0FDF800EE105A1FFA8AF1D9F84F
:100DD0000020B8EEC00AC0EE080ABCEEE00A10EE31
:100DE000100AA8EB000080B200F0EAF82046AC42FE
:100DF00009DC6D1C05EB45010C18641CEF4202D1A7
:100E0000B84200DC0020B84204DD7F1C07EB47003D
:100E10000444641C002F9BDD90E700009C08002028
:100E20002DE9FF4F83B00746064604989B464FF4D2
:100E300080610090B1FBFBF0DDF84090144601901A
:100E400038194FF0000A401E554602906EE000200F
:100E5000F4EE000A27E000BF374B99F80020A3F515
:100E6000006EB3F800C09B8800211FFA8CFC9BB277
:100E70005FEAC27802D02EF815C001E02EF81530D6
:100E8000761CB6B26D1C5208A6EB0708ADB2A045A1
:100E900001D13E4603E0491C89B20829E8D3401C31
:100EA00009F1010980B200EE104AB8EE400A20EEC6
:100EB000201A00EE100AB8EE400AB4EEC01AF1EEA5
:100EC00010FAC9DC01986043A84216D1DDE900019F
:100ED00000EB0108A8F1010083B20298002582B25C
:100EE0003846009900F0BAF90198604381B213487E
:100EF00000F082FE1FFA88F000900AF10108D84540
:100F000012D1049902988A4482B21FFA8AF33846B1
:100F1000009900F0A3F90099AAEB0100401C60437E
:100F200081B2064800F068FE1FFA88FADA458ED3CF
:100F300007B0BDE8F08F00009C0800209C00002056
:100F400070B514460C4A0B46A2F5006512880021C4
:100F500092B203E025F81120491C89B2A142F9D3CD
:100F60000119491E8AB2194600F078F92146BDE8F8
:100F70007040024800F040BE9C0800209C00002009
:100F800070B50D4B1446A3F500651B8800229BB27B
:100F900004E000BF25F81230521C92B2A242F9D3ED
:100FA0000A19521E93B2024600F058F92146BDE8D4
:100FB0007040024800F020BE9C0800209C000020E9
:100FC00070B50B46024600F049F9074D4FF4004456
:100FD0006C830648008880B200F068FE04480188EF
:100FE0000906FCD42C8370BD000002409C08002040
:100FF000083C00402DE9F0411C4616460D460746C8
:10100000FFF79EFF2819401E81B232463846FFF78F
:1010100097FF224629463846FFF7B2FFB819224605
:101020002946BDE8F041401E80B2FFF7A9BF2DE977
:10103000F84F8B46032190460746A1EB4806002453
:1010400015464FF6FF7931E08DB1ABEB050081B26B
:10105000009009EA4502381B924680B2FFF790FFE4
:101060000098524681B2381980B2FFF789FF8CB1DF
:10107000ABEB040081B2009009EA4402781B92466F
:1010800080B2FFF77DFF0098524681B2781980B296
:10109000FFF776FF002E03DA06EB8406B61D04E0A8
:1010A000601B06EB80066D1E0A36641CAC42CBD971
:1010B000424659463846BDE8F84FFFF77FBD00006D
:1010C0002DE9F0411D4614464A19521E93B20219E9
:1010D000521E92B200F0C2F81A48018821F0400175
:1010E0000180018841F400610180018841F04001E4
:1010F0000180154FC6137E83144B124A002108321B
:101100001B8802F1040C9BB26C4306E0ACF8003083
:101110001588AD07FCD5491C89B28C42F6DC1188D4
:101120000906FCD43E83018821F04001018001883A
:1011300021F400610180018841F040010180BDE897
:10114000F0810000003C0040000002409C080020AC
:101150002DE9FC410121CC03204600F0EBFD0121EB
:101160000B2000F0DBFD234E062203213046FFF763
:1011700048FB062205213046FFF743FB02258DF888
:10118000045003208DF8050000208DF806008DF82E
:1011900007000820009069463046FFF7E1FA20205A
:1011A000009069463046FFF7DBFA01208DF8040015
:1011B000114F8DF80550694638460094FFF7D0FA74
:1011C000DFF83880A510694640460095FFF7C8FA59
:1011D000E610694640460096FFF7C2FA29464046A7
:1011E000FFF721FB3C8331464046FFF71CFBBDE87F
:1011F000FC8100000004024000000240000C02409C
:1012000010B5012186B0C80300F094FD4FF44040B2
:10121000ADF800004FF48270ADF802000020ADF888
:101220000800ADF80400ADF80C00ADF80600ADF80C
:101230000E004FF400710720074CADF80A10ADF80E
:1012400010006946204600F0DFFD0121204600F035
:10125000D1FD06B010BD0000003C00402DE9F04774
:10126000174E4FF400459A461746884681467583C7
:101270002A2000F0F9FC134CA17B01EB090080B29D
:1012800000F014FDA07B384480B200F00FFD2B204D
:1012900000F0EAFCE17B01EB080080B200F006FD03
:1012A000E17B01EB0A0080B200F000FD2C2000F091
:1012B000DBFC054801880906FCD43583BDE8F087CE
:1012C000000002409C080020083C004001490860E2
:1012D00070470000700000204FF478414FF4FC622A
:1012E00001EA102102EA5012C0F3C4001143014385
:1012F00001484160704700009C0800204FF478418D
:101300004FF4FC6201EA102102EA5012C0F3C4005B
:101310001143014301480160704700009C08002010
:101320002DE9F0471E4CDFF87CA04FF400496072B5
:10133000AAF81A9001251A26A0274FF0500830B1BC
:10134000022809D001280CD0032816D020E036202E
:1013500000F08AFCA82008E0362000F085FCC820B8
:101360000FE0362000F080FC782000F0ADFCA57383
:10137000E6736781A4F80C800AE0362000F074FC64
:10138000082000F0A1FCA673E573A4F80A80A781E9
:10139000054801880906FCD4AAF81890BDE8F08732
:1013A0009C08002000000240083C00400C494860B6
:1013B000808814280FD005DC0C280AD0102807D10B
:1013C000084804E0182808D0202801D10648086001
:1013D00070470648FBE70648F9E70648F7E70000CC
:1013E000700000205800002034000020640000201D
:1013F0004C000020400000200149087270470000A6
:101400009C0800202DE9F05F00240120FFF788FFF1
:101410002448FFF7CBFF0020FFF770FFDFF88C9028
:10142000DFF884B0204D214E214FDFF88880DFF8AF
:1014300088A009F17F090BF17F0B082C0AD2DFE8A5
:1014400004F004062426282A2C2E284600E03046E4
:10145000FFF742FFFFF700FA18A205210D20FFF762
:1014600089FB1AA21E210D20FFF784FB1CA2372145
:101470000D20FFF77FFB4FF47A70FFF769F9641CCA
:10148000E4B2082CD9D3BDE8F09F3846E0E74046E7
:10149000DEE74846DCE75046DAE75846D8E76FF023
:1014A0007F40D5E7100000208080FF0080FF800093
:1014B000FF80800080FFFF00A3A3A30053544D339F
:1014C0003220CBA2C6C1B2E2CAD40000C6C1C4BB9E
:1014D000B7D6B1E6C2CA3A3136302A3830000000F9
:1014E000BFD8D6C6C6F73A53543737333500000055
:1014F00070B50020FFF7F0FEFFF7AEF92E48FFF7BA
:1015000055FF6FF07F40FFF7F9FE00212BA2084640
:10151000FFF730FB00244FF47F0500BFA5EB04402C
:10152000FFF7ECFE0A2214212046FFF729FD641C78
:10153000A4B2A02CF2D300244FF47F45A5EB0420E5
:10154000FFF7DCFE0A221E212046FFF719FD641C6E
:10155000A4B2F02CF2D30024C4F1FF00FFF7CEFEBA
:101560000A2228212046FFF70BFD641CA4B2F02CB0
:10157000F2D332241448FFF7C1FE37210A234B224D
:101580005520FFF79DFD11A221460020FFF7D4FA58
:101590001148FFF7B3FE47210A2337226920FFF7DE
:1015A0008FFD42210DA20020FFF7C6FABDE8704072
:1015B0004FF4FA60FFF7CCB810000020524742C841
:1015C000FDBBF9C9AB3A0000FFFF80004C4947481A
:1015D000545F4359414E0000FF80FF004C4947488B
:1015E000545F4D4147454E54410000002DE9F843FA
:1015F0000220FFF795FE0020FFF76EFEFFF72CF9A3
:101600005F48FFF7D3FE5F4D2846FFF777FE5EA2E7
:101610000A210520FFF7AEFA5E4E3046FFF76EFE58
:101620005D4C3C231A4632210A200094FFF7F8FB58
:101630005A48FFF7BBFE5A4F3846FFF75FFE59A2E4
:1016400070211020FFF796FA58A288211020FFF78A
:1016500091FA4FF47A784046FFF77AF80020FFF7C6
:101660005FFE0020FFF738FEFFF7F6F85148FFF75E
:101670009DFE2846FFF742FE4FA200211420FFF7EF
:1016800079FA3046FFF73AFE3C231A4614211E2011
:101690000094FFF7C5FB4148FFF788FE3846FFF787
:1016A0002DFE40A210216420FFF764FA3FA22821FA
:1016B0006420FFF75FFA4046FFF74AF80320FFF780
:1016C0002FFE0020FFF708FEFFF7C6F83948FFF7A6
:1016D0006DFE2846FFF712FE3AA20A211420FFF7FA
:1016E00049FA3046FFF70AFE3C231A4632210A2007
:1016F0000094FFF795FB2948FFF758FE3846FFF79F
:10170000FDFD28A270211020FFF734FA27A28821BE
:101710001020FFF72FFA4046FFF71AF80120FFF7D5
:10172000FFFD0020FFF7D8FDFFF796F82148FFF7EF
:101730003DFE2846FFF7E2FD24A200211420FFF71A
:1017400019FA3046FFF7DAFD3C231A4614211E2011
:101750000094FFF765FB1148FFF728FE3846FFF7B6
:10176000CDFD10A210216420FFF704FA0FA228215A
:101770006420FFF7FFF94046BDE8F843FEF7E8BFF5
:1017800004000020FBF9DFFF446972656374696F30
:101790006E5F56008DE5F6FF5A8300082800002092
:1017A000A8D39DFFC2B9D0A1B0E00000BFC6BCBCA9
:1017B0000000000010000020446972656374696FC6
:1017C0006E5F48005F565F466C69700044697265E1
:1017D0006374696F6E5F485F466C6970000000005B
:1017E00010B50020FFF778FDFFF736F86FF07F4067
:1017F000FFF784FD00215023A0220846FFF7FAFBE3
:101800004FF47F00FFF77AFD1E2228213220FFF7D8
:101810000EFC4FF47F40FFF771FD1E22282150205F
:10182000FFF705FCFF20FFF769FD1E2228216E202F
:10183000FFF7FDFB4FF47A742046FEF789FFFFF7B0
:101840000BF81048FFF75AFD1E2228215020FFF701
:10185000B5F9142228215020FFF7B0F90A48FFF704
:101860004DFD1C23462228215020FFF7EDF92323AC
:101870003C2228215020FFF7E7F92046BDE8104020
:10188000FEF766BFFFFF80008080FF0008B50020E4
:10189000FFF722FDFEF7E0FF0D48FFF72FFD0D4893
:1018A0003C230A2100901A460846FFF7B9FA0A4875
:1018B000FFF724FD09483C2300901A460A215A20CC
:1018C000FFF7AEFABDE808404FF4FA60FEF740BFFC
:1018D0008DE5F6FF5A830008A8D39DFF3A850008DE
:1018E00010B50020FFF7F8FCFEF7B6FF4FF6FF70CB
:1018F000FFF704FD3948FFF7E9FC002138A208464C
:10190000FFF71AF93948FFF7E1FC39A20C21002052
:10191000FFF712F93948FFF7D9FC39A21C21002042
:10192000FFF70AF96FF07F40FFF7E8FC3748FFF751
:10193000CDFC37A230210020FFF7FEF83748FFF733
:10194000DDFC3748FFF7C2FC36A219218720FFF7DC
:10195000F3F83348FFF7BAFC33A200218020FFF7E9
:10196000EBF831A230218020FFF7E6F84FF4FA645B
:101970002046FEF7EDFEFEF76FFF2C48FFF716FD41
:101980002B48FFF7BBFC00212AA20846FFF7F2F81C
:101990002C48FFF70BFD2C48FFF7B0FC2BA20C21C5
:1019A0000020FFF7E7F82D48FFF700FD2C48FFF770
:1019B000A5FC2CA21C210020FFF7DCF82D48FFF726
:1019C000F5FC2D48FFF79AFC2CA230210020FFF7F0
:1019D000D1F82046BDE81040FEF7BABE64000020F2
:1019E00041534349493A31322A31320058000020EC
:1019F00041534349493A31362A3136004C000020E0
:101A000041534349493A32302A32300040000020E5
:101A100041534349493A32343234000000FFFF0059
:101A2000340000202A0000003332000004000020AF
:101A3000D1C68A00313231323AC2B9D0A1B0E0BF4A
:101A4000C6BCBC0010000020A5E1C500313631360F
:101A50003AC2B9D0A1B0E0BFC6BCBC001C00002097
:101A600049B5FF00323032303AC2B9D0A1B0E0BF40
:101A7000C6BCBC00280000205D58FF003234323460
:101A80003AC2B9D0A1B0E0BFC6BCBC002DE9F05F3E
:101A90004FF000082DED048B454647469FED458BE2
:101AA0004046FFF719FCFEF7D7FE4448FFF77EFCDF
:101AB000434E3046FFF722FC002142A20846FFF7C2
:101AC00059F8DFF808914846FFF718FC40A21421A6
:101AD0000020FFF74FF841A228210020FFF74AF825
:101AE000DFF800A15046FFF709FC3FA23C2100208F
:101AF000FFF740F89FED3E9B0024B3465846FFF7A2
:101B0000FDFB0120FFF778FC04EB840005EB4002AD
:101B1000042300213220FEF7F1FF604200EB800039
:101B200007EB4002042300216420FEF7E7FF48464C
:101B3000FFF7E4FB0120FFF75FFCC4EB041000EBB0
:101B4000800608EB4602082314215020FEF7D6FF3A
:101B50000020FFF751FC05EB460208232821502006
:101B6000FEF7CCFF5046FFF7C9FB0120FFF744FC0E
:101B70002046FEF73EFC53EC192BFEF7C8FB53EC56
:101B8000182BFEF71DFB41EC100B04230B223C210C
:101B90003220FEF793FF0F20FEF7DAFD641CA4B29B
:101BA000642CABD3BDEC048B40F6C410BDE8F05FF1
:101BB000FEF7CEBD4ED1915C7E4893C01000002050
:101BC000FFFF8000D5FBCAFD3A00000080FFFF0048
:101BD000CCEEB3E4BFD5B8F13A000000CCEEB3E4EC
:101BE000303A00008080FF00D0A1CAFD3A0000001A
:101BF0007B14AE47E17A843FF0B5194A138823F08D
:101C000040031380138843F400631380138843F068
:101C100040031380134ED5137583114C00230834F1
:101C2000271D09E030F813C0A7F800C0B4F800C0C1
:101C30005FEA8C7CFAD55B1C8B42F3D320880006CC
:101C4000FCD43583108820F040001080108820F4E8
:101C500000601080108840F040001080F0BD00004F
:101C6000003C0040000002402DE9F0410D4C0746C9
:101C700020880006FCD40C4E4FF40055294630460F
:101C8000FEF7CFFD0748001D078020888007FCD5A0
:101C900020880006FCD429463046BDE8F041FEF716
:101CA000C2BD0000083C0040000C0240054A010A89
:101CB0001180111F0B889B07FCD5108008888007B6
:101CC000FCD570470C3C004003490880081F018880
:101CD0008907FCD5704700000C3C00401CB5012171
:101CE000042000F01BF801208DF8040000218DF87D
:101CF00006108DF80700064C8DF805100090694617
:101D00002046FEF72DFD01212046FEF78AFD1CBD71
:101D100000080240FEE7704770470000044A0029AF
:101D2000116801D0014300E0814311607047000059
:101D300030380240044A0029116801D0014300E014
:101D4000814311607047000040380240044A002976
:101D5000116801D0014300E0814311607047000029
:101D60004438024070B5204A1168204C11F00C0133
:101D700004D06610042903D0082903D004601BE0B6
:101D8000066019E01849091F0B68C3F380550B68FA
:101D900003F03F0315B1B6FBF3F301E0B4FBF3F33B
:101DA0000C680968C4F388146343C1F30141491CFA
:101DB0004900B3FBF1F1016011680F2303EA11112F
:101DC0000B4B5C5C0168E14041601468072505EA43
:101DD00094241C5D21FA04F48460126805EA5232EE
:101DE0009A5CD140C16070BD083802400024F40004
:101DF0008C0000200029018802D041F0400101E060
:101E000021F040010180704730B502884C8802F40F
:101E100041530A88CD8822438C882C4322430C8965
:101E200022434C8922438C892243CC8922431A4382
:101E30000280828B22F400628283098A018230BD93
:101E400070B5FFF785F9FFF7DBF90520FEF74EFDCA
:101E5000854D4FF400446C833620FFF705FF0820C2
:101E6000FFF732FF3A20FFF7FFFE0520FFF72CFFB8
:101E7000B120FFF7F9FE0520FFF726FF3C20FFF712
:101E800023FF3C20FFF720FFB220FFF7EDFE0520E7
:101E9000FFF71AFF3C20FFF717FF3C20FFF714FF66
:101EA000B320FFF7E1FE0520FFF70EFF3C20FFF710
:101EB0000BFF3C20FFF708FF0520FFF705FF3C2044
:101EC000FFF702FF3C20FFF7FFFEB420FFF7CCFE38
:101ED0000320FFF7F9FEC020FFF7C6FEAB20FFF797
:101EE000F3FE0B20FFF7F0FE0420FFF7EDFEC1200C
:101EF000FFF7BAFEC520FFF7E7FEC220FFF7B4FEEA
:101F00000D20FFF7E1FE0020FFF7DEFEC320FFF704
:101F1000ABFE8D20FFF7D8FE6A20FFF7D5FEC42068
:101F2000FFF7A2FE8D20FFF7CFFEEE20FFF7CCFEDD
:101F3000C520FFF799FE0F20FFF7C6FEE020FFF750
:101F400093FE0720FFF7C0FE0E20FFF7BDFE08201E
:101F5000FFF7BAFE0720FFF7B7FE1020FFF7B4FE29
:101F60000720FFF7B1FE0220FFF7AEFE0720FFF7C4
:101F7000ABFE0920FFF7A8FE0F20FFF7A5FE2520E6
:101F8000FFF7A2FE3620FFF79FFE0020FFF79CFE22
:101F90000820FFF799FE0420FFF796FE1020FFF7B8
:101FA00093FEE120FFF760FE0A20FFF78DFE0D2073
:101FB000FFF78AFE0820FFF787FE0720FFF784FE61
:101FC0000F20FFF781FE0720FFF77EFE0220FFF7BC
:101FD0007BFE0720FFF778FE0920FFF775FE0F2034
:101FE000FFF772FE2520FFF76FFE3520FFF76CFE2E
:101FF0000020FFF769FE0920FFF766FE0420FFF7C7
:1020000063FE1020FFF760FEFC20FFF72DFE80200E
:10201000FFF75AFE2120FFF727FE1120FFF724FECD
:102020007820FEF763FC2920FFF71EFE0F48018889
:102030000906FCD42C830220FFF772F90020FFF779
:102040004BF96FF07F40FFF759F9FEF705FC09499E
:1020500007480860084900200872BDE870404FF446
:1020600080510648FEF7DDBB00000240083C0040FE
:1020700040000020700000209C080020000C02405E
:10208000704700000CB500202749019000900A68B5
:1020900042F480320A604FF4A0430A6802F400322E
:1020A0000092019A521C0192009A12B9019A9A4226
:1020B000F3D10A68920334D5012000901A484030C9
:1020C000026842F0805202601848026842F44042BE
:1020D00002601548083002680260026842F400425B
:1020E0000260026842F4A0520260031F104A1A60A4
:1020F0000A6842F080720A600A689201FCD50D4AB3
:1021000040F205711160016821F00301016001686E
:1021100041F0020101600168C1F381010229FAD195
:102120000CBD00900CBD0000003802400070004063
:1021300008544007003C024000F02EB8124810B589
:10214000016841F4700101601048016841F001012B
:1021500001600E4A00210832116002680C4B1A40DF
:102160000260031D0B4A1A60026822F4802202609A
:1021700006480C300160FFF785FF03494FF000600F
:102180008039086010BD000088ED00E00038024092
:10219000FFFFF6FE1030002403480168002902D03A
:1021A0000168491E016070470000002000298189F4
:1021B00002D041F4005101E021F4005181817047C7
:1021C0001CB501210846FFF7A9FD02208DF8040087
:1021D00000208DF8060001218DF807108DF805000C
:1021E00048020B4C009069462046FEF7B9FA2015CC
:1021F000009069462046FEF7B3FA072209212046DF
:10220000FEF7FFFA07220A212046FEF7FAFA1CBD64
:10221000000002407FB50446008A0D4620F440517C
:10222000E88808432082A08941F20C618843A9888C
:102230002A8911436A8902431143A181A08A20F4AB
:102240004071A8890843A0826846FFF78BFD1A48B1
:10225000844202D01948844201D1039800E00298D8
:10226000A189090400EBC00101EB0010296801D528
:10227000490000E08900B0FBF1F26420B2FBF0F10C
:1022800009010B096FF018056B4302EB8302A38968
:102290001D044FF0320306D503EBC202B2FBF0F08F
:1022A00000F0070005E003EB0212B2FBF0F000F0D3
:1022B0000F00084320817FBD001001400014014041
:1022C000FEE700001FB501211020FFF73FFDFFF7DB
:1022D00077FF4FF4E13000900020ADF80800ADF832
:1022E00004000C21074CADF80600ADF80A10ADF85B
:1022F0000C0069462046FFF78DFF01212046FFF7BD
:1023000055FF1FBD001001400FB4084B10B504A9C4
:1023100002AA039800F0DEF8044602A9002000F0AB
:1023200070FC204610BC5DF814FB0000032C000874
:1023300002E008C8121F08C1002AFAD1704770478E
:10234000002001E001C1121F002AFBD170470000EC
:102350002DE9FF5F82B00021DDE90430020DDDF8D8
:1023600040B0034318D044F61050A2F2FF3242436B
:102370001514119801281FD0A5EB0B00401C5FEA33
:10238000000A4FF000064E4FDFF83891B046504635
:1023900015D5CAF1000413E0119801244AA30128BD
:1023A00001D16FEA0B010298119AC0E90031C0E92E
:1023B000024206B0BDE8F09FCBF10000DFE7044623
:1023C0000021404A491842EB0450CDE9001012E0C8
:1023D000E00707D032463B4640464946FDF797FFA7
:1023E0008046894632463B4610461946FDF78FFF28
:1023F00006460F466410002CEAD1DDE90401DDE950
:102400000023BAF1000F06DAFDF781FF42464B4682
:10241000FDF77DFF05E0FEF7BEF842464B46FEF7AE
:10242000BAF804460E460022284BFEF73BF903D8C3
:102430004FF0FF30014607E00022254B2046314691
:10244000FDF7BEFEFEF716F9102409E0002C0ADBAA
:102450000A220023FDF7F0FF039B30321A55641E59
:1024600050EA0102F2D1641C039AC4F1110314442E
:10247000119A012A03D0012208430DD10AE0084332
:1024800004D000204FF0110B119072E7A3EB0B0565
:102490006D1E0DE05B4504DD4FF0000205F1010506
:1024A00004E003DA4FF00002A5F10105002AECD0A8
:1024B00002981199C0E90231C0E9004579E70000AE
:1024C000000014400000F03F300000000000F04326
:1024D0000000E03F2DE9FF4F95B09B468946064638
:1024E00000250FE2252877D100242746F84A01214C
:1024F000059400E0044316F8013F203B01FA03F085
:102500001042F7D130782A2811D06FF02F0330789D
:10251000A0F13002092A16D8059A44F0020402EB11
:10252000820203EB42021044761C0590EFE759F853
:10253000042B0592002A03DA504244F4005405901B
:1025400044F00204761C30782E2816D116F8010FBC
:1025500044F004042A280DD06FF02F023078A0F147
:102560003003092B09D807EB870302EB4303C71895
:10257000761CF3E759F8047B761C30786C280FD072
:1025800006DC4C2817D068280DD06A2814D104E046
:10259000742810D07A280FD10DE044F400140AE01A
:1025A00044F4801401E044F440147278824202D171
:1025B00004F58014761C761C307866280BD013DC6A
:1025C000582877D009DC002875D04528F6D0462851
:1025D000F4D047281AD19DE118E0632835D064284B
:1025E00079D0652812D195E1702873D008DC67286E
:1025F000F1D069286FD06E280DD06F2806D1B5E0D4
:1026000073282CD0752875D0782874D05A4617991D
:1026100090476D1C75E1C4F30250022809D00328CD
:102620000DD0D9F8001004280DD00D6009F104096F
:1026300067E1D9F80010EA17C1E90052F6E7D9F8C6
:1026400000100D80F2E70D70F0E719F8041B8DF80B
:10265000001000208DF80100EA46012003E059F83F
:1026600004AB4FF0FF3061074FF0000102D40DE0E2
:1026700008F101018846B9420FDA8045F8DB1AF803
:1026800008100029F4D108E008F1010188468142D0
:10269000FADB1AF808100029F6D105985B46A0EB82
:1026A000080721463846179A00F094FA284400EBB0
:1026B000080507E04DE029E10DE01AF8010B5A4644
:1026C00017999047B8F10108F7D25B462146384682
:1026D000179A13E142E00A220092C4F302524FF02B
:1026E000000A022A08D059F804CB032A4FEAEC71F9
:1026F0000AD00DE029E02AE009F1070121F00702E4
:10270000F2E802C1914609E00FFA8CFC4FEAEC7145
:10271000042A03D14FFA8CFC4FEAEC71002907DA46
:102720000A460021DCF1000C61EB02012D2202E0DF
:10273000220504D52B228DF80420012203E0E207B4
:1027400001D02022F7E7904659E00A2102E010224A
:102750000DE010214FF0000A00910BE010224FF025
:10276000000A44F004040827009203E008224FF016
:10277000000A0092C4F30252022A05D059F804CB91
:102780000021032A08D009E009F1070121F007021E
:10279000F2E802C1914605E01FFA8CFC042A01D13F
:1027A0000CF0FF0C4FF00008220728D5702806D047
:1027B000009B83F0100353EA0A0305D00EE0402289
:1027C0008DF80420012208E05CEA010206D03022E4
:1027D0008DF804208DF8050002229046009B83F0BE
:1027E000080353EA0A030AD15CEA010201D1620735
:1027F00005D530228DF804204FF001087F1E58289F
:1028000004D034A003900EA802900DE036A0F9E7A2
:1028100053466046009AFDF70FFE84460398825C9B
:102820000298401E029002705CEA0100F0D102980A
:1028300006A9081A00F1200A600702D524F48034A2
:1028400000E00127574502DDA7EB0A0000E0002069
:1028500000EB0A01009005984144401A0590E003FE
:1028600006D45B462146179A059800F0B3F9054453
:10287000002706E001A85A46C05D179990476D1CD5
:102880007F1C4745F6DBE0030CD55B462146179AD3
:10289000059800F09FF9054404E030205A46179946
:1028A00090476D1C0099481E00900029F5DC08E057
:1028B000029802995A460078491C0291179990474C
:1028C0006D1CBAF10001AAF1010AF1DC65E100001A
:1028D00009280100303132333435363738396162F6
:1028E00063646566000000003031323334353637BA
:1028F00038394142434445460000000000F058F991
:102900000544761C307800287FF4ECAD19B02846D9
:10291000BDE8F08F620700D4062709F1070222F014
:10292000070CFCE80223E14603F000485FEA080CCC
:1029300002D00FF2702C0DE05FEA045C02D50FF2BA
:10294000682C07E05FEAC47C02D00FF2602C01E043
:10295000AFF2700C4FF0FF3823F00043CDF850C0B9
:1029600065280CD006DC452809D046281DD047280C
:102970003DD13DE0662818D067287ED138E000219F
:10298000112F01DB112000E0781CCDE9000106A920
:102990000EA8FFF7DDFCDDE90F010E9A039100217F
:1029A000009207F1010A04914DE04FF000400097BA
:1029B000CDE9011006A90EA8FFF7CAFCDDE90F0258
:1029C00003920E9B11990022DDF80CA00093049253
:1029D00011B9791C00EB010AB7EB0A0004D4C0F16D
:1029E000FF3007F1010A0490AAEB0700019044E0D0
:1029F000012F00DA01270021112F01DD112000E055
:102A00003846CDE9000106A90EA8FFF7A1FCDDE9D3
:102A10000F010E9A0391002104910092BA462107FA
:102A20000CD40399514500DA8A46BAF1010F05DD4D
:102A3000009AAAF10101515C302908D0B84202DAAB
:102A400010F1040F06DA0121CDE9011015E0AAF119
:102A50000101E9E7002805DC049901440491AAEB8F
:102A6000000102E0411C514500DD8A460499401AEC
:102A7000401C01904FF000400290200704D40198C0
:102A8000504501DBCDF8048000208DF84F000298FE
:102A90000DF14F07B0F1004F25D02B200E9002987A
:102AA0004FF0020800280CDA404202902D200E90D0
:102AB00007E00A210298FDF7A9FC3031029007F8DF
:102AC000011DB8F10001A8F10108F2DC029800280C
:102AD000EFD1791E0E980870307800F0200040F099
:102AE000450007F8020D12A8C01B00F10708149852
:102AF000007800B1012000EB0A01019801EBE071C0
:102B000005984144401A401E0590E00306D45B46F8
:102B10002146179A059800F05DF80544149800784E
:102B200018B15A46179990476D1CE00324D55B46AF
:102B30002146179A059800F04DF805441CE00498CA
:102B4000002807DBDDE90301884203DD0098405CD3
:102B5000179901E0179930205A469047049805F1DB
:102B60000105401C04900198401E019004D12E20C4
:102B70005A46179990476D1CBAF10001AAF1010A53
:102B8000DDDC05E017F8010B5A46179990476D1CDC
:102B9000B8F10001A8F10108F4DC5B462146179A60
:102BA0000598ABE62D0000002B000000200000007F
:102BB0002DE9F041044600251E461746880404D43A
:102BC00005E039462020B0476D1C641EF9D5284623
:102BD000BDE8F0812DE9F041044600251E469046EF
:102BE000C80301D5302700E02027880404D505E07C
:102BF00041463846B0476D1C641EF9D52846BDE8ED
:102C0000F0810A68531C0B6010707047FDF786FD59
:102C1000FFF764F8FDF70AFEFFF754FBFFF710F922
:102C2000FEF7F0FBFEF75CFEFEF730FFFEF760FC00
:102C3000FEF7D6FDFEF72AFEFEF7D8FCF0E74000CF
:102C4000FE079200FE079204FE0702008A04BA0201
:102C50008A01AA041907C2B9200000000000000080
:102C60000000000000000000000000000000200044
:102C7000200020002000240124022202220421043A
:102C8000200020003800D0A120000000000000003B
:102C90000000000000000000000000000000200014
:102CA000A70722012A012A012F01AA0726012201D2
:102CB00016011301C807B0E020000000000000006A
:102CC00000000000000000000000000000000801FB
:102CD0002701440104013F0144010E011607E501EB
:102CE000040104010401BFC6200000000000000030
:102CF0000000000000000000000000000000840050
:102D00008400F4078F008400F4032C02270244019E
:102D1000840044013606BCBC200000000000000016
:102D200000000000000000000000000000000000A3
:102D30000000000000000000000000000000000093
:102D40000000000000000000000000000000000083
:102D50000000000000000000000000000000000073
:102D60000000000000000000000000000000000063
:102D70000000000000000000000000000000000053
:102D80000000000000000000000000000000000043
:102D90000000000000000000000000000000000033
:102DA0000000000000000000000000000000000023
:102DB0000000000000000000000000000000000013
:102DC0000000000000000000000000000000000003
:102DD00000000000000000000000000000000000F3
:102DE00000000000000000000000000000000000E3
:102DF00000000000000000000000000000000000D3
:102E000000000000000000000000000000000000C2
:102E10000000000000000000000000000000800032
:102E20000001FC7F44044404FC3F44244424FC3F50
:102E300014021422F41A12061222D122303CC2B912
:102E40002000000000000000000000000000000062
:102E500000000000000000000000000000008000F2
:102E600080008000800080008808881088208420EE
:102E700084408240814080008000A0004000D0A1BA
:102E80002000000000000000000000000000000022
:102E90000000000000000000000000000000000131
:102EA00000011F7D44114411441144115F7D441100
:102EB000241104119C108710427C20001000B0E007
:102EC00020000000000000000000000000000000E2
:102ED00000000000000000000000000000001008DA
:102EE000B8080F0908090808BF0808091C092C08B8
:102EF0000A78CA0F09080808080808080808BFC6A1
:102F000020000000000000000000000000000000A1
:102F100000000000000000000000000000000804A5
:102F200008040804C87F3F0408040804A83F1821C7
:102F30000C110B12080A0804080A8A116460BCBC50
:102F40002000000000000000000000000000000061
:102F50000000000000000000000000000000004031
:102F6000FC4304420442FC4B444844484448FC4B64
:102F70004A4A4A4A4A4AC942484140504020CBA2A4
:102F80002000000000000000000000000000000021
:102F90000000000000000000000000000000000031
:102FA000FC1F04100410FC1F24084404F41F4404F4
:102FB0004404FC3F44044204220421041004C6C11A
:102FC00020000000000000000000000000000000E1
:102FD00000000000000000000000000000000020D1
:102FE000E4232822282AA12AA22AA22AA82AA82A37
:102FF000A42AA72A84204421442224281010B2E2C3
:1030000020000000000000000000000000000000A0
:10301000000000000000000000000000000000149C
:10302000042408240804E07F00040F04E80788044F
:1030300088088808A8089853E85040600040CAD41F
:103040002000000000000000000000000000000060
:10305000000000000000000000000000000020024E
:10306000FE3F2002F80F0808F80F0808F80F2000AC
:10307000FF7F8808FC1F8B68880A88048000C4BB17
:103080002000000000000000000000000000000020
:10309000000000000000000000000000000000022E
:1030A000200220041004080804100220F94720041C
:1030B0002004200410041004080484020201B7D67E
:1030C00020000000000000000000000000000000E0
:1030D00000000000000000000000000000000408E4
:1030E000081108113E7D0001542948117F7D4811C7
:1030F00008113E3988108810441024100210B1E6DF
:10310000200000000000000000000000000000009F
:10311000000000000000000000000000000040006F
:103120008000FE3F40002222F41188084412F2275A
:1031300000048000FF7F8000800080008000C2CA01
:10314000200000000000000000000000000000005F
:103150000000000000000000000000000000080265
:1031600008040804C87F5F402829881058200C00F4
:103170008B3F0804080408040804EA7F0400BFD851
:10318000200000000000000000000000000000001F
:1031900000000000000000000000000000002020EF
:1031A00024202420FC2522242024FF27202420243E
:1031B000FC25242524256421A42020282010D6C6FF
:1031C00020000000000000000000000000000000DF
:1031D00000000000000000000000000000000000EF
:1031E0007C3E442244227C3E80048008FF7F4001D4
:1031F00030060C1803607C3E442244227C3EC6F715
:10320000200000000000000000000000000000009E
:10321000000000000000000000000000000010049A
:103220001004FF7D1022FE259224FE1454089214EF
:1032300011620000FE3F8000881F8800FF7FD5FBE1
:10324000200000000000000000000000000000005E
:10325000000000000000000000000000000010045A
:1032600092045404107CFF22542292221125081447
:103270007F1444084208261418142C224341CAFD26
:10328000200000000000000000000000000000001E
:103290000000000000000000000000000000040228
:1032A0000402E43F0402C41F5F10C41F4410C41F83
:1032B0004410C41F5C10F77F820840102020CCEE21
:1032C00020000000000000000000000000000000DE
:1032D00000000000000000000000000000004000AE
:1032E0008000FF7F2000200010040808FC1F20122F
:1032F000200220022002102210220822063CB3E401
:10330000200000000000000000000000000000009D
:10331000000000000000000000000000000040006D
:103320008000FE7F02401124080804100000F80FFE
:1033300080008000800080008000FE3F0000BFD53C
:10334000200000000000000000000000000000005D
:103350000000000000000000000000000000080164
:103360000801081F8810DF0828050C021C05AA1890
:103370004A60A91F881088108810881F8810B8F12B
:10338000200000000000000000000000000000001D
:1033900000000000000000000000000000008000AD
:1033A00080008000800080008808881088208420A9
:1033B00084408240814080008000A0004000D0A175
:1033C00020000000000000000000000000000000DD
:1033D00000000000000000000000000000000000ED
:1033E0000000FE3F0000000000000000FC1F000085
:1033F0000000000000000000FF7F00000000C8FD8A
:10340000200000000000000000000000000000009C
:103410000000000000000000000000000000100498
:103420001004FE3F1004F0071004F0071004FF7FA3
:10343000100488088410F36780008000FC1FBBF92B
:10344000200000000000000000000000000000005C
:10345000000000000000000000000000000010005C
:103460001000F80704040202FD1F84108410841069
:10347000FC1F0400044004400440F87F0000C9AB76
:10348000200000000000000000000000000000001C
:10349000000000000000000000000000000000002C
:1034A000000000000000000000000000000000001C
:1034B000000000000000000000000000000000000C
:1034C00000000000000000000000000000000000FC
:1034D00000000000000000000000000000000000EC
:1034E00000000000000000000000000000000000DC
:1034F00000000000000000000000000000000000CC
:1035000000000000000000000000000000000000BB
:1035100000000000000000000000000000000000AB
:10352000000000000000000000000000000000009B
:10353000000000000000000000000000000000008B
:10354000000000000000000000000000000000007B
:10355000000000000000000000000000000000006B
:10356000000000000000000000000000000000005B
:10357000000000000000000000000000000000004B
:10358000000000000000000000000000000000003B
:10359000000000000000000000000000000000002B
:1035A000000000000000000000000000000000001B
:1035B000000000000000000000000000000000000B
:1035C00000000000000000000000000000000000FB
:1035D00000000000000000000000000000000000EB
:1035E00000000000000000000000000000000000DB
:1035F00000000000000000000000000000000000CB
:1036000000000000000000000000000000000000BA
:1036100000000000000000000000000000000000AA
:10362000000000000000000000000000000000009A
:10363000000000000000000000000000000000008A
:1036400000000400000C00F8EE030811000811004F
:10365000F8FF01081101081101F8F701080801C875
:103660001001489001C87300481002481402441326
:1036700002C4F003020000000000C2B920000000F4
:10368000000000000000000000000000000000003A
:10369000000000000000000000000000000000002A
:1036A000000000000000000000000000000000001A
:1036B0000000000000000000000004000004000002
:1036C000040000040000040040040060240020C442
:1036D0000020840110040308040308040204040207
:1036E0000004000004000004008007000002000045
:1036F0000000D0A120000000000000000000000039
:1037000000000000000000000000000000000000B9
:1037100000000000000000000000000000000000A9
:103720000000000000000000000000000000000099
:1037300000000400EC040010BC031044001044001E
:10374000104400104500FC450010E50390440010B3
:103750004400104400D042003042000E410082F884
:1037600007400000300000000000B0E02000000032
:103770000000000000000000000000000000000049
:103780000000000000000000000000000000000039
:103790000000000000000000000000000000000029
:1037A000000000000000000000008000C081003C1C
:1037B0008000208800209000209000FC8100208064
:1037C00000608800B0900030810728F9002487004D
:1037D00022800020800020800020800020800000C7
:1037E0000000BFC620000000000000000000000034
:1037F00000000000000000000000000000000000C9
:1038000000000000000000000000000000000000B8
:1038100000000000000000000000000000000000A8
:1038200000101000302000202000202000FCFF03AA
:10383000202000202000202000E0F801380401268C
:10384000840020880020480020700020300020489C
:10385000003C8603900102000000BCBC2000000078
:103860000000000000000000000000000000000058
:103870000000000000000000000000000000000048
:103880000000000000000000000000000000000038
:103890000000000000000000000000000000000028
:1038A0000000000000FCFF0300000000000000001A
:1038B00000000000F8FF0100000000000000000010
:1038C000000000000000FEFF0700000000000000F4
:1038D0000000C8FD20000000000000000000000003
:1038E00000000000000000000000000000000000D8
:1038F00000000000000000000000000000000000C8
:1039000000000000000000000000000000000000B7
:103910000000000000000000000000000010200077
:10392000FEFF01102000F03F00102000F03F0010CB
:103930002000FFFF03102100FCFF00030103FEFF36
:1039400001000000000000000000BBF920000000A2
:103950000000000000000000000000000000000067
:103960000000000000000000000000000000000057
:103970000000000000000000000000000000000047
:103980000000000000000000000000000000000037
:103990000000000000400000F01F00181800040C98
:1039A00000FFFF00048200048200FCFF000480008E
:1039B000040000040002F8FF010000000000000005
:1039C0000000C9AB20000000000000000000000063
:1039D00000000000000000000000000000000000E7
:1039E00000000000000000000000000000000000D7
:1039F00000000000000000000000000000000000C7
:103A000000000000000000000000000000000000B6
:103A100000000000000000000000000000000000A6
:103A20000000000000000000000000000000000096
:103A30000000000000000000000000000000000086
:103A40000000000000000000000000000000000076
:103A50000000000000000000000000000000000066
:103A60000000000000000000000000000000000056
:103A70000000000000000000000000000000000046
:103A80000000000000000000000000000000000036
:103A90000000000000000000000000000000000026
:103AA0000000000000000000000000000000000016
:103AB0000000000000000000000000000000000006
:103AC00000000000000000000000000000000000F6
:103AD00000000000000000000000000000000000E6
:103AE00000000000000000000000000000000000D6
:103AF00000001000003010F0FF3F104200104200A4
:103B0000104200F0FF1F104208104208104208F057
:103B1000FF0F10200890C00090410890410E904F78
:103B20000398C10088411088491084473084C13F00
:103B3000020000000000C2B92000000000000000E8
:103B40000000000000000000000000000000000075
:103B50000000000000000000000000000000000065
:103B60000000000000000000000000000000000055
:103B70000000000000000000000000000000000045
:103B800000000000001800001800001000001000E5
:103B9000001000001000809000801101C010024051
:103BA000100460101C301018101030081030041071
:103BB00020001000001000001000001900001E007E
:103BC000000C00000000D0A1200000000000000058
:103BD00000000000000000000000000000000000E5
:103BE00000000000000000000000000000000000D5
:103BF00000000000000000000000000000000000C5
:103C000000000000000000000000000000000000B4
:103C100000001000003000FED13F201002201002F2
:103C2000201002201002201402FC15022014022091
:103C3000D63F201202201202201002A009026008C2
:103C4000021C080206040200020200F13FC000004C
:103C5000200000000000B0E0200000000000000094
:103C60000000000000000000000000000000000054
:103C70000000000000000000000000000000000044
:103C80000000000000000000000000000000000034
:103C90000000000000000000000000000000000024
:103CA0000000000400070CF80004C00004C0600419
:103CB000C0C004C00004FE0704C00004C02004E02B
:103CC0006004E04304F04624D04474C8800FC878F0
:103CD00004C40404C20004C00004C00004C0000402
:103CE000C00004400004BFC6200000000000000027
:103CF00000000000000000000000000000000000C4
:103D000000000000000000000000000000000000B3
:103D100000000000000000000000000000000000A3
:103D20000000000000000000000000000000000093
:103D30000020800060800160800060800060800062
:103D4000FEFF3F608000608000608000608200E0D5
:103D5000FD1F7010086E100C642004602006604087
:103D60000260400360800160400364300E780C7C88
:103D7000200310000000BCBC200000000000000078
:103D80000000000000000000000000000000000033
:103D90000000000000000000000000000000000023
:103DA0000000000000000000000000000000000013
:103DB0000000000000000000000000000000000003
:1040D00000000000000000000000C003C003C00397
:1040E000C003C003C0038003800180018001800100
:1040F000800180018001800100000000000080013B
:10410000C003C003800100000000000000000000A8
:104110000000C018E01CE01C700E300618038C0173
:10412000840000000000000000000000000000000B
:10413000000000000000000000000000000000007F
:10414000000000000000000000000000000000006F
:1041500000000000000000000000201020102010CF
:1041600020102010FE7FFE7FFE7F10081008100830
:10417000100810081008FE7FFE7FFE7F180C080450
:10418000080408040804000000000000000000000B
:1041900000000000000080008000C003B00C9018F8
:1041A0009818981C981CB800B000F000E000C003FC
:1041B0008007800F800C801C80189C189C188C181D
:1041C0008C0C9806E0038000800080000000000056
:1041D000000000000000000000001C083608220457
:1041E0006304630263026302630163012201B61C7C
:1041F0009C36402240634063206320631063106359
:1042000010220836081C000000000000000000001A
:1042100000000000000000000000F00098008C0189
:104220008C018C018C018C00CC005C0038001C3EA1
:104230003C08320873086304E304C3048303834324
:1042400006678C3E781C00000000000000000000A3
:1042500000001C003C003C003000300010000C004E
:104260000600000000000000000000000000000048
:10427000000000000000000000000000000000003E
:10428000000000000000000000000000000000002E
:1042900000000040002000100018000C0004000680
:1042A0000002000300038001800180018001800181
:1042B00080018001800180010003000300020006EC
:1042C0000004000C00180010002000400000000056
:1042D0000000020004000800180030002000600008
:1042E0004000C000C0008001800180018001800189
:1042F0008001800180018001C000C000C00060001A
:104300002000300018000800040002000000000037
:10431000000000000000000000000000000000039A
:10432000800380030C631C713839600D80038003A7
:10433000600D38391C718C6180038003800300009C
:10434000000000000000000000000000000000006D
:10435000000000000000000000000000000000005D
:104360000001000100010001000100010001FC7FCB
:104370000001000100010001000100010001000036
:10438000000000000000000000000000000000002D
:10439000000000000000000000000000000000001D
:1043A000000000000000000000000000000000000D
:1043B00000000000000000000000000000001C00E1
:1043C0003C003C003000300010000C0006000000F3
:1043D00000000000000000000000000000000000DD
:1043E0000000000000000000000000000000FE7F50
:1043F00000000000000000000000000000000000BD
:1044000000000000000000000000000000000000AC
:10441000000000000000000000000000000000009C
:10442000000000000000000000000000000000008C
:104430000000000000000000000000000000180064
:104440003C003C00180000000000000000000000DC
:104450000000000000400060002000300010001844
:104460000008000C000400060002000300018001A7
:104470008000C000400060002000300010001800E4
:1044800008000C000400060002000000000000000C
:1044900000000000000000000000C0036004300CB9
:1044A0001818181818100C300C300C300C300C3058
:1044B0000C300C300C300C300C3018101818181848
:1044C000300C6004C0030000000000000000000089
:1044D0000000000000000000000000018001F80161
:1044E00080018001800180018001800180018001C4
:1044F00080018001800180018001800180018001B4
:104500008001C003F81F0000000000000000000050
:1045100000000000000000000000E007101C081868
:10452000043004300C300C30003000180018000C3F
:10453000000600038001C000400020201020082059
:104540000430FC1FFC1F0000000000000000000001
:1045500000000000000000000000E00318060C0C42
:104560000C180C180C1800180018000C0006C003DA
:10457000000E00180010003000300C300C300C1011
:104580000C18180CE0030000000000000000000000
:104590000000000000000000000000060006000708
:1045A000000780068006400620062006100610063A
:1045B00008060C0604060206FE3F0006000600067A
:1045C00000060006C03F00000000000000000000E0
:1045D00000000000000000000000F03FF03F080075
:1045E00008000800080008000800C807280C181870
:1045F000081000300030003000300C300C3004184F
:104600000418180CE0030000000000000000000087
:104610000000000000000000000080076018301853
:1046200010181800080008000C00CC076C0C1C18AF
:104630001C100C300C300C300C300C3018301810B2
:104640003018700CC00700000000000000000000DF
:1046500000000000000000000000F83FF83F0810D4
:104660000C08040804040004000200020002000117
:1046700000018000800080008000C000C000C000F9
:10468000C000C000C00000000000000000000000EA
:1046900000000000000000000000E007300C1818C7
:1046A0000C300C300C301C301C107818F004E00377
:1046B000180F0C1E0C1C063806300630063006306B
:1046C0000C18180CE00300000000000000000000BF
:1046D00000000000000000000000E00318040C08C7
:1046E0000C180610063006300630063006300E383C
:1046F0000C341836F03100300018001800080C0C8B
:104700000C060C03F0010000000000000000000097
:104710000000000000000000000000000000000099
:1047200000000000000000008001C003C003800101
:1047300000000000000000000000000000008001F8
:10474000C003C00380010000000000000000000062
:104750000000000000000000000000000000000059
:1047600000000000000000000000C001C001C00106
:104770000000000000000000000000000000000039
:10478000C001C001C0018001C000C00000000000E5
:1047900000000000000000000000002000100008E1
:1047A000000400020001800040002000100008000A
:1047B00008001000200040008000000100020004FA
:1047C00000080010002000000000000000000000B1
:1047D00000000000000000000000000000000000D9
:1047E0000000000000000000FE7F0000000000004C
:1047F00000000000FE7F000000000000000000003C
:1048000000000000000000000000000000000000A8
:10481000000000000000000000000400080010007C
:104820002000400080000001000200040008001089
:104830000010000800040002000180004000200079
:10484000100008000400000000000000000000004C
:1048500000000000000000000000C0073018183001
:1048600008600C601C601C601C6000300018000EAA
:1048700000030001000100010001000000008001B0
:10488000C003C00380010000000000000000000021
:1048900000000000000000000000C00760083010A9
:1048A00018200C2B8C4D844CC64CC6446644664480
:1048B00066446646662666266417CC0C0C400820C3
:1048C00018303018C0070000000000000000000091
:1048D00000000000000000000000C001C001C00195
:1048E000C00120032003200320033002100610061D
:1048F00010061004F80F080C080C080C0418041813
:10490000041806381F7C00000000000000000000B2
:1049100000000000000000000000FE07181C18182E
:10492000183018301830183018301818180CF807CC
:10493000181818301820186018601860186018606F
:1049400018301818FE0F00000000000000000000E2
:1049500000000000000000000000C00760381030B8
:1049600018600C400C400C00060006000600060013
:10497000060006000600060006000C400C40082059
:1049800018103008C0070000000000000000000000
:1049900000000000000000000000FE03180E1818C0
:1049A00018101830183018601860186018601860F7
:1049B000186018601860186018201830183018181F
:1049C00018181806FE030000000000000000000098
:1049D00000000000000000000000FE3F183018201A
:1049E000184018401800180018081808180CF80F7C
:1049F000180C18081808180018001800184018405B
:104A000018201830FE3F00000000000000000000E9
:104A100000000000000000000000FE3F18381820D1
:104A2000184018401800180018081808180CF80F3B
:104A3000180C180818081808180018001800180092
:104A4000180018007E0000000000000000000000B8
:104A500000000000000000000000C003300C10083F
:104A600018180C100C1004000600060006000600C2
:104A70000600067E0618061804180C180C180818EC
:104A800018183004E00300000000000000000000DF
:104A9000000000000000000000003FFC0C300C3063
:104AA0000C300C300C300C300C300C300C30FC3F27
:104AB0000C300C300C300C300C300C300C300C3016
:104AC0000C300C303FFC0000000000000000000033
:104AD00000000000000000000000F81F80018001BD
:104AE00080018001800180018001800180018001BE
:104AF00080018001800180018001800180018001AE
:104B000080018001F81F000000000000000000008C
:104B100000000000000000000000E07F000600062A
:104B20000006000600060006000600060006000655
:104B30000006000600060006000600060006000645
:104B40000006000600060E060E038E01FC000000A3
:104B5000000000000000000000007E3E180C180459
:104B6000180618021801180198009800D800B8011A
:104B7000B8011803180318061806180C180C180C9E
:104B8000181818187E7C00000000000000000000CB
:104B9000000000000000000000007E001800180067
:104BA0001800180018001800180018001800180045
:104BB00018001800180018001800180018401840B5
:104BC00018201830FE3F0000000000000000000028
:104BD000000000000000000000000FF01C381C382E
:104BE0001C381C381C3434343434343434323432C9
:104BF00064326432643264314431C431C431C4300B
:104C0000C43084308FFC0000000000000000000071
:104C1000000000000000000000000FF81C201C2015
:104C20003420342064206420C420C42084218421C2
:104C30000423042304260426042C042C04380438FA
:104C4000043004301F2000000000000000000000BD
:104C500000000000000000000000C003300C181825
:104C600008100C300C3006200660066006600660F6
:104C7000066006600660066004600C300C300810A8
:104C80001818300CC00300000000000000000000F5
:104C900000000000000000000000FE0F181818308F
:104CA00018601860186018601860186018301818BC
:104CB000F80718001800180018001800180018004D
:104CC000180018007E000000000000000000000036
:104CD00000000000000000000000C003300C1818A5
:104CE00008100C300C300660066006600660066036
:104CF00006600660066006600660E4211C331C3610
:104D0000181E300EC007004C003C003800000000A8
:104D100000000000000000000000FE07181C18182A
:104D2000183018301830183018301818180CF807C8
:104D300018031803180618061806180C180C180C77
:104D4000181818187E78000000000000000000000D
:104D500000000000000000000000F013181E0C18F6
:104D600006180610061006000E003C00F800E003CE
:104D7000800F001E00180038023002300630043068
:104D80000C181C0CE40700000000000000000000EC
:104D900000000000000000000000FC3F8C21846146
:104DA0008241824180018001800180018001800177
:104DB00080018001800180018001800180018001EB
:104DC00080018001E00700000000000000000000FA
:104DD000000000000000000000003F7C0C100C10E0
:104DE0000C100C100C100C100C100C100C100C10E3
:104DF0000C100C100C100C100C100C100C100C10D3
:104E000018083804E0030000000000000000000063
:104E1000000000000000000000003E78183018106C
:104E200018101810300830083008300830046004BA
:104E3000600460046002C002C002C002C0018001C0
:104E400080018000800000000000000000000000E1
:104E500000000000000000000000CFF38661862102
:104E6000842104210C238C238C238C138C13881312
:104E7000481258165816580E380E300E300E300C98
:104E800030041004100400000000000000000000C6
:104E9000000000000000000000003E7C1810180810
:104EA0003008300460046002C002C001800180014B
:104EB00080018003400340062006200E100C100CD9
:104EC000181808383E7C00000000000000000000B8
:104ED000000000000000000000007E7C1C10181084
:104EE000180830083008300460046004C002C002B2
:104EF000C00180018001800180018001800180016A
:104F000080018001E00700000000000000000000B8
:104F100000000000000000000000F87F383018306A
:104F20000C180418000C00060006000300038001A2
:104F30008001C000C00060006000300018401860B0
:104F40000C200C38FE3F00000000000000000000B4
:104F500000000000C03FC000C000C000C000C00092
:104F6000C000C000C000C000C000C000C000C00041
:104F7000C000C000C000C000C000C000C000C00031
:104F8000C000C000C000C000C03F00000000000022
:104F900000000000000000001800180010003000A1
:104FA0002000600060004000C0008000800180019F
:104FB00000010003000200060006000C000C000CBB
:104FC00000180018003000300030006000000000C1
:104FD00000000000FC0300030003000300030003C3
:104FE00000030003000300030003000300030003A9
:104FF0000003000300030003000300030003000399
:105000000003000300030003FC0300000000000095
:105010000000C003C007600410080000000000008A
:105020000000000000000000000000000000000080
:105030000000000000000000000000000000000070
:105040000000000000000000000000000000000060
:105050000000000000000000000000000000000050
:105060000000000000000000000000000000000040
:105070000000000000000000000000000000000030
:10508000000000000000000000000000FFFF000022
:1050900000007800C00000010000000000000000D7
:1050A0000000000000000000000000000000000000
:1050B00000000000000000000000000000000000F0
:1050C00000000000000000000000000000000000E0
:1050D00000000000000000000000000000000000D0
:1050E0000000000000000000E007180C0C180C186D
:1050F0000C18001CE01B38180C18061806180618A7
:1051000006980C9EF87100000000000000000000EE
:10511000000000000000000010001E001800180031
:1051200018001800180018009807581C3818383054
:10513000183018301830183018301830183018104F
:105140003818380CC80700000000000000000000FC
:10515000000000000000000000000000000000004F
:105160000000000000000000C00770083018181888
:105170000C180C000C000C000C000C000C2018206B
:1051800018103008C00700000000000000000000F8
:1051900000000000000000000010001E00180018B1
:1051A0000018001800180018E01B301C18181818F8
:1051B0000C180C180C180C180C180C180C180818D3
:1051C000181C307AE0090000000000000000000018
:1051D00000000000000000000000000000000000CF
:1051E0000000000000000000C003300C1018181070
:1051F0000C300C300C30FC3F0C000C000C00182064
:1052000018107018C0070000000000000000000027
:1052100000000000000000000000003E806180608F
:10522000C060C000C000C000FC1FC000C000C000C3
:10523000C000C000C000C000C000C000C000C0006E
:10524000C000C000F80F00000000000000000000D7
:10525000000000000000000000000000000000004E
:105260000000000000000000C077306C1018181813
:10527000181818181018300CF00718001800F80348
:10528000F01F18380C300C300C301818E0070000F4
:10529000000000000000000010001E0018001800B0
:1052A00018001800180018009807580C381818181B
:1052B000181818181818181818181818181818186E
:1052C000181818187E7E0000000000000000000082
:1052D000000000000000000000008001C003800109
:1052E0000000000000000001F80180018001800141
:1052F00080018001800180018001800180018001A6
:1053000080018001F81F0000000000000000000084
:1053100000000000000000000000001C001E000C47
:105320000000000000000008C00F000C000C000C82
:10533000000C000C000C000C000C000C000C000C0D
:10534000000C000C000C000C18061802F001000004
:10535000000000000000000010001E0018001800EF
:105360001800180018001800183E180C180418022D
:1053700018019801D801780338031806180C180C86
:10538000181818387E7C00000000000000000000A3
:1053900000000000000000000001F8018001800111
:1053A00080018001800180018001800180018001F5
:1053B00080018001800180018001800180018001E5
:1053C00080018001F81F00000000000000000000C4
:1053D00000000000000000000000000000000000CD
:1053E0000000000000000400F73C8E6386618661C7
:1053F0008661866186618661866186618661866175
:1054000086618661CFF3000000000000000000000C
:10541000000000000000000000000000000000008C
:10542000000000000000000090075E0C38181818FB
:1054300018181818181818181818181818181818EC
:10544000181818187E7E0000000000000000000000
:10545000000000000000000000000000000000004C
:105460000000000000000000C003300C10181818E5
:1054700008300C300C300C300C300C300C3018185C
:105480001818300CC00300000000000000000000ED
:10549000000000000000000000000000000000000C
:1054A000000000000000000090075E0C3818181083
:1054B00018301830183018301830183018301818C4
:1054C0003818780C98071800180018007E000000A3
:1054D00000000000000000000000000000000000CC
:1054E0000000000000000000C013301E181C181837
:1054F0000C180C180C180C180C180C180C18081890
:10550000181C301EE019001800180018007E00005A
:10551000000000000000000000000000000000008B
:10552000000000000000000060387E666061E0015D
:10553000E0006000600060006000600060006000EB
:1055400060006000FE070000000000000000000096
:10555000000000000000000000000000000000004B
:105560000000000000000000C0276038303030200C
:1055700030207000E003800F001E00380830083033
:1055800018303818C80F00000000000000000000AC
:10559000000000000000000000000000000080008B
:1055A00080008000C000E000FC1FC000C000C00000
:1055B000C000C000C000C000C000C000C000C020CB
:1055C000C0208011000F000000000000000000005B
:1055D00000000000000000000000000000000000CB
:1055E00000000000000010101E1E181818181818CF
:1055F000181818181818181818181818181818182B
:10560000181C307AE00900000000000000000000D3
:10561000000000000000000000000000000000008A
:1056200000000000000000003E7C18301810181820
:1056300030083008200460046004C002C002C003C7
:1056400080018001800000000000000000000000D8
:10565000000000000000000000000000000000004A
:105660000000000000000000DFF3866184218C212F
:105670008C218C13881358135812580E700E300E4C
:10568000300C300420040000000000000000000086
:10569000000000000000000000000000000000000A
:1056A00000000000000000007C3E3008700860042C
:1056B000C002C00280018001800340062006200C49
:1056C000101818183E7E00000000000000000000C6
:1056D00000000000000000000000000000000000CA
:1056E00000000000000000003E7C18181808100898
:1056F00030082004600460044002C002800280017F
:10570000800180008000800040007C003C000000A0
:105710000000000000000000000000000000000089
:105720000000000000000000FC1F0C1C0C0C040614
:10573000040700038001C001C00060007020302019
:1057400018300C18FC1F00000000000000000000D2
:1057500000000030000800040004000400040004FD
:10576000000400040004000400040004000380019D
:10577000000200040004000400040004000400040B
:1057800000040004000400040008003000000001D0
:105790000001000100010001000100010001000101
:1057A00000010001000100010001000100010001F1
:1057B00000010001000100010001000100010001E1
:1057C00000010001000100010001000100010000D2
:1057D0000000180020004000400040004000400051
:1057E00040004000400040004000400080010003B5
:1057F0008000400040004000400040004000400069
:105800004000400040004000200018000000000060
:105810007800C400824102410027001C0000000003
:105820000000000000000000000000000000000078
:105830000000000000000000000000000000000068
:105840000000000000000000000000000000000058
:105850000000000000000000000000000000000048
:105860000000000000000000000000000000000038
:105870000000000000000000000000000000000028
:105880000000000000006000600060006000600038
:1058900060006000400020002000200000000000A8
:1058A00000006000600060000000000000000000D8
:1058B0000000600660063003980188004400000084
:1058C00000000000000000000000000000000000D8
:1058D00000000000000000000000000000000000C8
:1058E0000000000000001002100210021002FE076B
:1058F000FE0708020801080108010801FE07FE076B
:105900000401040104010401000000000000000083
:105910000000000040004000F00158034C03CC039D
:105920004C0058007000E000C001C00140034C036F
:105930005C034C034801F000400040000000000000
:105940000000000000000E010A019100910091008A
:10595000510051003A00AE03A00250045004480424
:105960004804480484028403000000000000000092
:1059700000000000000038006C006C006C006C003F
:105980006C002C0098071C011A01330133016301DC
:10599000E300C308C6093C07000000000000000047
:1059A00000000C001C0010001000080004000000A3
:1059B00000000000000000000000000000000000E7
:1059C00000000000000000000000000000000000D7
:1059D0000000000400020001800080004000400040
:1059E0002000200020002000200020002000400097
:1059F0004000800080000001000200040000000060
:105A00000000020004000800100010002000200028
:105A100040004000400040004000400040002000A6
:105A20002000100010000800040002000000000028
:105A3000000000000000000000004000C000400026
:105A4000460C4E0FD001F0015E0F460C40004000A6
:105A50004000000000000000000000000000000006
:105A600000000000000000000000000040004000B6
:105A7000400040004000FE0F400040004000400059
:105A800040000000000000000000000000000000D6
:105A90000000000000000000000000000000000006
:105AA00000000000000000000000000000000000F6
:105AB00000000C001C001000100008000400000092
:105AC00000000000000000000000000000000000D6
:105AD000000000000000FE070000000000000000C1
:105AE00000000000000000000000000000000000B6
:105AF00000000000000000000000000000000000A6
:105B00000000000000000000000000000000000095
:105B100000001C001C001C00000000000000000031
:105B200000000004000600020003000100018000E4
:105B300080004000400060002000200010001000A5
:105B4000080008000C00040006000200000000002D
:105B50000000000000000000F00098010C030C039E
:105B600006060606060606060606060606060606D5
:105B70000C030C039801F00000000000000000007E
:105B8000000000000000000040007C006000600099
:105B90006000600060006000600060006000600005
:105BA000600060006000FC030000000000000000D6
:105BB0000000000000000000F8008401020306035A
:105BC0000603000300018001C000600020001000F7
:105BD000080204020602FE030000000000000000AC
:105BE00000000000000000007800C6008601860169
:105BF00080018001C00070008001000100030003EB
:105C0000060306038601F800000000000000000003
:105C1000000000000000000080018001C001A00120
:105C2000A00190018801880184018201FE0F80019A
:105C3000800180018001E0070000000000000000FA
:105C40000000000000000000FC0304000400040049
:105C500004000400F4008C010403000300030603A5
:105C6000060382018401F80000000000000000002B
:105C70000000000000000000E00118030C030C000D
:105C800004000600E60116030E06060606060606D2
:105C900004060C021803F0000000000000000000E1
:105CA0000000000000000000F8070C0604020401D8
:105CB00000010001800080004000400040006000C2
:105CC0006000600060006000000000000000000054
:105CD0000000000000000000F8010C0306060606A4
:105CE00006060C021C03F000C8010C03060606069B
:105CF000060606060C03F00100000000000000008C
:105D00000000000000000000F0000C010C0306027F
:105D100006060606060606078C0678060006000339
:105D200000030C018C01780000000000000000005E
:105D30000000000000000000000000000000000063
:105D40000000E000E000E0000000000000000000B3
:105D50000000E000E000E0000000000000000000A3
:105D60000000000000000000000000000000000033
:105D70000000600060000000000000000000000063
:105D800000000000600060004000200020000000D3
:105D9000000000000000000400020001800040003C
:105DA000200010000800040008001000200040003F
:105DB000800000010002000400000000000000005C
:105DC00000000000000000000000000000000000D3
:105DD0000000FE07000000000000FE0700000000B9
:105DE00000000000000000000000000000000000B3
