:020000040800F2
:10000000400D0020A1010008472A0008B91200088D
:10001000452A0008410700080D2E000800000000D6
:10002000000000000000000000000000292C000873
:100030004307000800000000492A00082B2C000894
:10004000BB010008BB010008BB010008BB010008A0
:10005000BB010008BB010008BB010008BB01000890
:10006000BB010008BB010008BB010008BB01000880
:10007000BB010008BB010008BB010008BB01000870
:10008000BB010008BB010008BB010008BB01000860
:10009000BB010008BB010008BB010008BB01000850
:1000A000BB010008BB010008BB010008BB01000840
:1000B000BB010008BB010008BB010008BB01000830
:1000C000BB010008BB010008BB010008BB01000820
:1000D000BB010008BB010008BB010008BB01000810
:1000E000BB010008BB010008BB010008BB01000800
:1000F000BB010008BB010008BB010008BB010008F0
:10010000BB010008BB010008BB010008BB010008DF
:10011000BB010008BB010008BB010008BB010008CF
:10012000BB010008BB010008BB010008BB010008BF
:10013000BB010008BB010008BB010008BB010008AF
:10014000BB010008BB010008BB010008BB0100089F
:10015000BB010008BB010008BB010008BB0100088F
:10016000BB010008BB010008BB010008BB0100087F
:10017000BB010008BB010008BB0100080000000033
:10018000BB010008BB010008DFF810D000F0C6FA80
:10019000004800470D370008AFF30080400D0020F5
:1001A0000648804706480047FEE7FEE7FEE7FEE711
:1001B000FEE7FEE7FEE7FEE7FEE7FEE7C92C0008E4
:1001C000890100082DE9F05F0546002092469B4614
:1001D00088460646814640241BE02846414647465D
:1001E000224600F07DF953465A46C01A914110D379
:1001F00011461846224600F064F92D1A67EB0108F3
:100200004F4622460120002100F05BF917EB000960
:100210004E41201EA4F10104DFDC484631462A4647
:100220004346BDE8F09FD2B201E000F8012B491E21
:10023000FBD270470022F6E710B513460A46044683
:100240001946FFF7F0FF204610BD2DE9FE4F80460E
:1002500081EA0300C00F0C46009021F0004123F01A
:100260000045B8EB0200A94105D240462146904620
:100270001C460B46024623F00040104347D0270D92
:10028000C7F30A00C3F30A510290401A01904028B4
:100290006BDAC3F3130040F4801B0098924620B140
:1002A0000023D2EB030A63EB0B0B01985946C0F114
:1002B0004002504600F005F906460D4650465946A4
:1002C000019A00F01DF910EB08006141002487EA53
:1002D000115284EAE7731A4340D0009A62B3019A3C
:1002E000012A4FEA075215DC001B61EB02014FF0B7
:1002F000004202EA0752CDE90042001C41F580119C
:1003000032462B4600F01DF903B0BDE8F08F4046A1
:100310002146F9E7001B61EB0201001C41F5801347
:1003200000185B412018A2F5001747EB030140EAD3
:10033000D570B6196D4111E06D084FEA360645EAF1
:10034000C0754FEA0752001B61EB0201001C41F52A
:10035000801149084FEA30000019514132462B46BE
:1003600003B0BDE8F04F00F0DDB800980122400076
:100370000023D0EB020263EBE073009821464FEAC2
:10038000E074B8EB000061EB0401E9E783F000439F
:100390005BE781F0004158E72DE9FE4F81EA030455
:1003A00004F0004421F0004100944FF0000B23F0D2
:1003B000004350EA01045ED052EA03045BD0C3F369
:1003C0000A54C1F30A552C44A4F2F3340194A0FB5F
:1003D0000254C1F3130141F48011C3F3130343F436
:1003E000801301FB024400FB034E840A970A44EA8F
:1003F000815447EA8357A4FB076802958D0A05FBE1
:1004000007854FEA932C04FB0C542705029D4FEA05
:10041000065847EA1637B5EB08056EEB070C870E52
:10042000920E47EA811742EA8312A7FB0201B6EB5C
:100430000B0164EB00042B0D43EA0C335E1844EB14
:100440001C50DA465146E7FB0201C5F313044FEA9C
:100450000B3343EA14534FEA0432019C43EA060388
:10046000A4F10C040294009CCDE900B400F069F8FA
:1004700003B0BDE8F08F00200146F9E70EB540F269
:10048000334102910021CDE900110A460B4600F0EC
:1004900058F803B000BD30B50B46014600202022BD
:1004A000012409E021FA02F59D4205D303FA02F581
:1004B000491B04FA02F52844151EA2F10102F1DCE1
:1004C00030BD202A04DB203A00FA02F100207047F8
:1004D0009140C2F1200320FA03F319439040704782
:1004E000202A04DB203A21FA02F00021704721FA89
:1004F00002F3D040C2F120029140084319467047F0
:10050000202A06DBCB17203A41FA02F043EAE073D7
:1005100006E041FA02F3D040C2F1200291400843C4
:100520001946704710B5141E73F1000408DA401C18
:1005300041F1000192185B411A4301D120F0010002
:1005400010BD2DE9F04D92469B4611B1B1FA81F2F2
:1005500002E0B0FA80F220329046FFF7B2FF044684
:100560000F4640EA0A0041EA0B0153465A46084347
:1005700013D0114653EA010019D0C8F14002504689
:10058000FFF7AEFF05460E46504659464246FFF776
:1005900098FF084305D0012004E020463946BDE815
:1005A000F08D0020054346EAE0762C4337430A9855
:1005B0006305E40AA0EB08000022FD0A44EA475460
:1005C0000A3002D500200146E9E70105101969410A
:1005D000DDE9084500196941BDE8F04DA2E72DE9C4
:1005E000F04D81EA030404F0004B21F0004514466D
:1005F0004FF0000A23F0004150EA050220D054EAEF
:1006000001021DD0C5F30A570246C5F31303C1F317
:100610001300C1F30A5640F4801543F48013A7EB8E
:100620000608101BD64608F2FD3873EB050002D30E
:1006300008F1010801E092185B41B8F1000F03DAFC
:1006400000200146BDE8F08D00204FF480110646E1
:1006500084460EE0171B73EB050705D3121B63EBF3
:10066000050306434CEA010C49084FEA3000921892
:100670005B4150EA0107EDD152EA030012D082EA51
:10068000040083EA0501084305D0101BAB4106D2E4
:100690000122002306E000224FF0004302E06FF049
:1006A000010253101AEB06004CEB085110EB0A0044
:1006B00041EB0B01BDE8F04DFFF734BFC1F30A5227
:1006C000C1F3130140F2FF3341F480119A4202DA80
:1006D00000200146704740F233439A42A2F233426F
:1006E00002DC5242FFF7FCBEFFF7EBBE30B5041E42
:1006F00071F1000404DB4FF00044404264EB01015F
:10070000141E73F1000405DB1C464FF000435242F7
:1007100063EB0403994208BF904230BD064C074D7D
:1007200006E0E06840F0010394E8070098471034C1
:10073000AC42F6D3FFF72CFDC0AD0008E0AD0008D9
:10074000FEE7704770B5044600F00CF90546601CE2
:1007500002D004480078044400F004F9401BA04291
:10076000FAD370BD800000202DE9F84FDFF8BCA15E
:100770000022012503264FF00F090AF1040BAAF10C
:10078000040E00BF0B6805FA02F42340A34270D1A7
:100790000F7907F00307012F01D0022F16D18768C8
:1007A0004FEA420806FA08FC27EA0C07D1F80CC009
:1007B0000CFA08FC4CEA070CC0F808C04768A743CD
:1007C0000C79C4F3001494403C4344600C79E44336
:1007D000A4070AD0C4684FEA420C06FA0CF7BC43DF
:1007E0008F6807FA0CF72743C7600C7904F00304FD
:1007F000022C12D1D40800EB840CDCF820405707FF
:10080000FF0E09FA07F824EA0804D1F8108008FA64
:1008100007F848EA0408CCF8208004684FEA420C44
:1008200006FA0CF7BC430F7907F0030707FA0CF739
:10083000274307604C6814F4403F70D03C4C276855
:1008400047F480472760246822F0030704F48044BB
:100850000094384C07EB040CDCF8084897074FEA83
:10086000177809FA08F7BC43334FB84202D1002782
:1008700024E054E0314FB84201D101271EE0304F4F
:10088000B84201D1022719E02E4FB84201D1032707
:1008900014E02D4FB84201D104270FE02B4FB8428E
:1008A00001D105270AE02A4FB84201D1062705E009
:1008B000284FB84201D1072700E0082707FA08F7B8
:1008C0002743CCF80878DAF800405746D1F804C03E
:1008D0009C435FEACC2C00D51C433C60DBF8004015
:1008E0005F46D1F804C09C435FEA8C2C00D51C43C2
:1008F0003C60DEF800407746D1F804C09C435FEAD4
:100900008C3C00D51C433C60084F083F3C68D1F844
:1009100004C09C435FEACC3C00D51C433C60521CA5
:10092000102AFFF42FAFBDE8F88F0000083C01400B
:100930004438024000300140000002400004024000
:1009400000080240000C0240001002400014024067
:1009500000180240001C02400AB18161704709047E
:10096000FBE700000148806870470000800000201D
:10097000024881680278114481607047800000203D
:100980000B4810B5016841F400710160016841F441
:1009900080610160016841F480710160032000F012
:1009A00061F80F2000F006F800F024F8002010BDD8
:1009B000003C024070B50D4D04464FF47A71287822
:1009C000B1FBF0F00A490968B1FBF0F000F0EAFB76
:1009D00048B9102C07D200222146501E00F022F800
:1009E00000206C6070BD012070BD00008000002000
:1009F0008C0000200A4808B5016841F4804101607C
:100A0000006800F4804000900548001F016841F034
:100A100080510160006800F08050009008BD000027
:100A200044380240F0B40E4B1B680C46C3F302235B
:100A3000C3F10705042D00D90425191D072901D28A
:100A4000002300E0DB1E012606FA05F1491E2140C5
:100A500099409E40761E16403143F0BC02F0ECB93E
:100A60000CED00E0064900F0070208684FF6FF03AE
:100A7000184040EA0220034A104308607047000013
:100A80000CED00E00000FA052DE9F0470E460500E8
:100A900065D0DFF81481D8F80000F7B200F0070045
:100AA000B04207D288F80070D8F8000000F00700C4
:100AB000B04254D128683D4C810712D5400703D578
:100AC000206840F4E05020602878000703D52068B3
:100AD00040F4604020602068A96820F0F0000843DE
:100AE00020602878C0072DD030496868083901286F
:100AF00012D0022813D0032811D0096889070029D1
:100B00002DDA216821F0030101432160FFF72AFF5C
:100B1000814641F2883A0EE009688903EFE70968E7
:100B20008901ECE7FFF71EFFA0EB0901514502D94F
:100B30000320BDE8F0872068696800F00C00B0EB86
:100B4000810FEFD1D8F80010404601F00701B14203
:100B500007D90770006800F00700B04201D00120FB
:100B6000E7E72878400705D52068E96820F4E050D9
:100B7000084320602878000706D52068296920F4FA
:100B8000604040EAC100206000F038F82168084A5F
:100B9000C1F30311515CC84006490860064800686B
:100BA000FFF708FF0020C4E7003C0240083802407D
:100BB000A6AD00088C0000208400002004480549F0
:100BC00000680968044AC1F38221515CC84070473B
:100BD0008C00002008380240B6AD000804480549E2
:100BE00000680968044AC1F34231515CC84070474B
:100BF0008C00002008380240B6AD0008154810B53A
:100C0000006810F00C02144813D04110042A0FD0D1
:100C1000082A0ED10F4C241F2268236802F03F02DD
:100C20005B0207D52068C0F38810A0FB010106E035
:100C3000084610BD2168C1F38811A1FB0001002303
:100C4000FFF7C0FA2168C1F30141491C4900B0FB1C
:100C5000F1F010BD083802400024F4002DE9F84FEF
:100C600004006ED02078DFF84C93C007A9F104058A
:100C70004AD009F104000168C1F38101012908D0BB
:100C80000068C0F3810002280AD1D9F800004002B0
:100C900006D52868800337D560680028E1D033E0A6
:100CA0006068B0F5803F10D0B0F5A02F286810D054
:100CB00020F480302860286820F480202860606854
:100CC000A8B1FFF74FFE06460DE0286840F48030DB
:100CD000F4E740F480202860F7E700BFFFF742FE0A
:100CE000801B642873D828688003F7D50CE0FFF7D1
:100CF00039FE064605E000BFFFF734FE801B64287E
:100D0000F0D828688003F7D42078DFF8AC82800719
:100D10004FF0000A3ED5A748001D016811F00C0FE6
:100D200008D00068C0F3810002280BD1D9F8000078
:100D3000400207D42868800716D5E068012800D152
:100D400012E033E1E068B8B10120C8F80000FFF715
:100D500009FE064605E000BFFFF704FE801B0228DF
:100D6000C0D828688007F7D52868216920F0F800E6
:100D700040EAC10028600DE0C8F800A0FFF7F2FDCE
:100D8000064604E0FFF7EEFD801B02281FD8286806
:100D90008007F7D42078000722D5864F87486169FD
:100DA000703771B101210160FFF7DCFD064604E0F8
:100DB000FFF7D8FD801B022809D838688007F7D5CF
:100DC0000EE0C0F800A0FFF7CDFD064605E082E08A
:100DD000FFF7C8FD801B02287DD838688007F7D44C
:100DE0002078400768D5DFF8CCB100270BF13C0B29
:100DF000DBF80000C0000BD4DBF8001041F080519C
:100E0000CBF80010DBF80000012700F080500090C4
:100E10006B4E3068C00510D4306840F4807030608C
:100E2000FFF7A0FD009005E0FFF79CFD0099401A38
:100E3000022850D83068C005F6D55E4EA0686C36E2
:100E400001280FD00528306810D020F00100306054
:100E5000306820F004003060A068B8B1FFF782FD70
:100E600000900FE0306840F00100F4E740F004002B
:100E70003060F7E7FFF776FD0099411A41F28830BC
:100E8000814266D830688007F4D50EE0FFF76AFD2E
:100E9000009007E0FFF766FD0099411A41F28830A3
:100EA000814256D830688007F4D42FB1DBF80010A7
:100EB00021F08051CBF80010A069C8B33D49091D4D
:100EC0000968C1F3810102294AD00228504607D09F
:100ED000C8F8600000E03CE0FFF744FD04463BE05A
:100EE0004746C8F86000FFF73DFD064605E000BF35
:100EF000FFF738FD801B02282BD828688001F7D423
:100F0000D4E907010843A16A2E4A490802EB0141CE
:100F1000626A41EA8211084394F82C1040EA0161A8
:100F2000C9F8001001203866FFF71CFD044606E0F2
:100F30003EE000BFFFF716FD001B022809D8286815
:100F40008001F7D534E000BFFFF70CFD001B02283D
:100F500002D90320BDE8F88F28688001F4D427E087
:100F60000128F7D0D9F80000E26900F4800191422D
:100F70001CD1226A00F03F01914217D147F6C0719F
:100F8000626A0140B1EB821F10D1A26A4FF0FF33B9
:100F900000F4403103EB5202B1EB024F06D194F85A
:100FA0002C1000F07060B0EB016F01D00120D1E790
:100FB0000020CFE70438024000004742800E47423D
:100FC000007000400000FFFF70B5040009D0606AA7
:100FD000002540B125616561A56294F8510040B1DA
:100FE0000CE0012070BD6068B0F5827FF4D0E5614F
:100FF000F2E784F85050204600F044F8022084F8CC
:1010000051002068016821F040010160A088218919
:1010100000F4827001F404410843A18901F40061E5
:101020000843217C01F002010843217D01F0010108
:101030000843218B01F400710843217F01F038013E
:10104000084394F8201001F080010843218D01F439
:101050000051084321680860A069042101EA10409A
:1010600094F8241001F010010843216848602068BA
:10107000C16921F40061C1616565012084F85100F6
:10108000002070BD2DE9F04F87B00446142168465A
:10109000FFF7D0F83E492068884276D13D480024C9
:1010A000016841F400410160006800F400400590CF
:1010B00038481038016841F002010160016801F010
:1010C00002010591016841F002010160016801F02F
:1010D00002010591016841F001010160016801F020
:1010E00001010591016841F008010160016801F00A
:1010F00008010591016841F00801016000680225BE
:1011000000F0080005900820CDE900050320CDE996
:1011100002400620204E049069463046FFF724FB2B
:101120002020009069463046FFF71EFBAF030126E2
:10113000DFF868A0CDE9007669465046CDE9024562
:10114000FFF712FB4FF48058CDF80080CDE9016421
:10115000DFF84CB0694658460394FFF705FB4FF49F
:101160000059CDE9009669465846CDE90245FFF79A
:10117000FBFA012249465846FFF7EEFBCAF8187001
:10118000002241465846FFF7E7FB07B0BDE8F08F65
:10119000003C004040380240000402400000024091
:1011A000000C024010B5401EB0F1807F01D3012039
:1011B00010BD4FF0E02460610F21601701F03CFE8C
:1011C0000020A06107202061002010BD70B5040040
:1011D00004D094F83D00002510B106E0012070BD58
:1011E00084F83C50204600F023F8242084F83D0089
:1011F0002068C16821F40051C160204601F06CFDF7
:101200002068016921F4904101612068416921F061
:101210002A0141612068C16841F40051C160256420
:10122000202084F83D0084F83E00002070BD0000BE
:1012300010B586B0044614216846FEF7FBFF1B4933
:101240002068884230D11A48016841F010010160DD
:10125000006800F01000059015481438016841F04E
:1012600001010160016801F001010591016841F08F
:101270000101016000680F4C00F0010005904FF47F
:101280000070009002200190012002900320039042
:101290000720049069462046FFF766FA2015009063
:1012A00069462046FFF760FA06B010BD0010014005
:1012B0004438024000000240FEE7000070B5224CB6
:1012C0000021A089401E83B26089401E82B2084678
:1012D00000F0C0FCA4F6580001680B684FF6BF721E
:1012E00013400B6001680B6843F400630B600168F6
:1012F0000B6843F040030B60144BD1079961002148
:1013000007E006686568F5600568AE68B607FCD555
:10131000491C6589A68975438D42F2D801688C689D
:101320002406FCD44FF400449C610B6813400B600E
:1013300001680A684FF2FF731A400A60006801688A
:1013400041F04001016070BD2C0900200000024006
:101350002DE9F05F0023203A02F0FF0B284A824675
:1013600089464FF000401C4619469061DFF894E032
:10137000254EDEF8000026E00768DFF890C00BFB82
:101380000272BCF80070BCF804C09D5C0022BFB2C1
:101390001FFA8CFC5FEAC57802D026F8147001E0D1
:1013A00026F814C0641C491CB0F804806D0889B28A
:1013B000A4B2884501D1002103E0521C92B2082A50
:1013C000E8D35B1C9BB202899A42D5D8C288A9F1A6
:1013D000010111448BB28188AAF10100084482B254
:1013E00074464946504600F035FC20688188C08824
:1013F000BDE8F05F414389B2034801F059BA0000EB
:1014000000000240780000202C0100202C09002060
:101410002DE9F05FDFF8D08083468A46D8F80400D3
:10142000002317780589066819465C1C05FB04FC37
:1014300016F80CC0BC4508D104FB056492F801C045
:101440006478644501D1994604E09B1C44899BB2B1
:101450009C42EAD800221346C646244E27E007687D
:10146000DFF88CC009FB0474BCF80070BCF804C041
:101470001D5D0024BFB21FFA8CFC00BF5FEAC57877
:1014800002D026F8127001E026F812C0521C491C46
:10149000B0F804806D0889B292B2884501D100216C
:1014A00003E0641CA4B2082CE8D35B1C9BB2048943
:1014B0009C42D4D8C288AAF1010111448BB2818820
:1014C000ABF10100084482B274465146584600F020
:1014D000C1FB60688188C088BDE8F05F414389B284
:1014E000024801F0E5B90000780000202C0100203E
:1014F0002C09002030B50546094887B00C46007A13
:101500008DED000B50B107A102A801F081FC02AAE9
:101510002146284600F02CF807B030BD03A1F3E7C0
:101520002C090020252A2E2A6C66000025302A2E40
:101530002A6C66007FB51E46094B05460C46187A94
:101540001346324648B107A1684601F061FC6A467D
:101550002146284600F00CF87FBD03A1F4E7000007
:101560002C090020252A640025302E2A6400000062
:101570002DE9F0411546884604460A4F0A4E08E018
:1015800041462046FFF7E4FE38686D1C8088204401
:1015900084B27089A04202D92A78002AF0D1BDE82D
:1015A000F0810000780000202C0900202DE9F04196
:1015B00014460F4605460E4E15E07F2A09D83946D7
:1015C0002846FFF7C5FE3068641C8088284485B231
:1015D00009E0224639462846FFF71AFF7068A41C26
:1015E0008088284485B22278002AE6D1BDE8F081BF
:1015F000780000202DE9F84F814655420026022050
:101600001E4F884600EB4504A9EB05003A6808EB3D
:10161000060A00901FFA8AF180B200F04BFA09EB3B
:10162000050B1FFA8AF11FFA8BF03A6800F042FAB4
:10163000A8EB060A1FFA8AF11FFA8BF03A6800F04D
:1016400039FA00981FFA8AF13A6880B200F032FA4B
:101650002046B44208DC761C00EB4604641CF542CC
:1016600002D1A84200DC0020A84203DD6D1C04EB7F
:101670004504641C002DC7DDBDE8F88F2C0900204F
:101680002DE9F05F00EE102A80465742F8EEC00ABE
:1016900000EE103A022000EB4704B8EEC00A002525
:1016A0006C480E462DED028B9A4267DD80EE808AF3
:1016B0004FEA000900EE105AA8EB070BD9F80020FA
:1016C000B8EEC00AC0EE080ABCEEE00A10EE100A3E
:1016D000304481B21FFA8BF000F0ECF900EE105AA2
:1016E00008EB070AD9F80020B8EEC00AC0EE080AD5
:1016F000BCEEE00A10EE100A304481B21FFA8AF004
:1017000000F0D8F900EE105AD9F80020B8EEC00A5F
:10171000C0EE080ABCEEE00A10EE100A301A81B2E0
:101720001FFA8AF000F0C6F900EE105AD9F800202E
:10173000B8EEC00AC0EE080ABCEEE00A10EE100ACD
:10174000301A81B21FFA8BF000F0B4F92046AC4297
:1017500008DC6D1C00EB4504641CEF4202D1B8426A
:1017600000DC0020B84203DD7F1C04EB4704641C4E
:10177000002F9FDDBDEC028BBDE8F09F80EE208A3C
:101780005F420025814600BF00EE105A06EB070AB3
:101790001FFA8AF1B8EEC00AD9F80020C0EE080A94
:1017A000BCEEE00A10EE100AA8EB000080B200F0D8
:1017B00081F900EE105A1FFA8AF1D9F80020B8EE2C
:1017C000C00AC0EE080ABCEEE00A10EE100A40445F
:1017D00080B200F06FF900EE105AA6EB070A1FFA6C
:1017E0008AF1B8EEC00AD9F80020C0EE080ABCEEB3
:1017F000E00A10EE100A404480B200F05BF900EEFF
:10180000105A1FFA8AF1D9F80020B8EEC00AC0EECB
:10181000080ABCEEE00A10EE100AA8EB000080B245
:1018200000F048F92046AC4209DC6D1C05EB45018F
:101830000C18641CEF4202D1B84200DC0020B84210
:1018400004DD7F1C07EB47000444641C002F9BDD74
:1018500090E700002C0900202DE9FF4F83B00746D8
:10186000064604989B464FF480610090B1FBFBF064
:10187000DDF840901446019038194FF0000A401EE0
:10188000554602906EE00020F4EE000A27E000BF0B
:10189000374B99F80020A3F5006EB3F800C09B8881
:1018A00000211FFA8CFC9BB25FEAC27802D02EF8AE
:1018B00015C001E02EF81530761CB6B26D1C52082A
:1018C000A6EB0708ADB2A04501D13E4603E0491C96
:1018D00089B20829E8D3401C09F1010980B200EE61
:1018E000104AB8EE400A20EE201A00EE100AB8EEB8
:1018F000400AB4EEC01AF1EE10FAC9DC0198604358
:10190000A84216D1DDE9000100EB0108A8F10100B1
:1019100083B20298002582B23846009900F09AF905
:101920000198604381B2134800F0C2FF1FFA88F0AB
:1019300000900AF10108D84512D1049902988A440E
:1019400082B21FFA8AF33846009900F083F90099B1
:10195000AAEB0100401C604381B2064800F0A8FFDA
:101960001FFA88FADA458ED307B0BDE8F08F000081
:101970002C0900202C0100202DE9FE4F0027141A0D
:10198000002C00DC841A0FFA84F85C1A002C00DCAE
:10199000CC1A0FFA84FC06B20DB24FF0FF3482422B
:1019A00003D301208246019001E0A24601948B42BC
:1019B00003D301208146009001E0A1460094E04558
:1019C0004FF0000008DB8146019008EBD870C34659
:1019D0004410CDF808C026E0824600200090E3467F
:1019E0000CEBDC70CDF808804410D8461BE01048A2
:1019F000A9B20268B0B200F05DF80298204404B2C7
:101A00005C4508DBA4EB0B0004B20198304406B23D
:101A10000098284405B206EB0A0006B205EB09005F
:101A20007F1C05B23FB24745E1DDBDE8FE8F0000F7
:101A30002C09002070B514460C4A0B46A2F500652F
:101A40001288002192B203E025F81120491C89B2C6
:101A5000A142F9D30119491E8AB2194600F0FAF8D9
:101A60002146BDE87040024800F022BF2C0900204A
:101A70002C01002070B50D4B1446A3F500651B88A2
:101A800000229BB204E000BF25F81230521C92B233
:101A9000A242F9D30A19521E93B2024600F0DAF8B4
:101AA0002146BDE87040024800F002BF2C0900202A
:101AB0002C01002010B50B46024600F0CBF8094C73
:101AC0004FF00040A0610848008880B200F052FF4B
:101AD0000648006881680906FCD44FF40040A06104
:101AE00010BD0000000002402C090020D40000209E
:101AF0002DE9F0411C4616460D460746FFF79AFFB2
:101B00002819401E81B232463846FFF793FF22461D
:101B100029463846FFF7AEFFB81922462946BDE8E8
:101B2000F041401E80B2FFF7A5BF2DE9F84F8B466C
:101B3000032190460746A1EB4806002415464FF6C0
:101B4000FF7931E08DB1ABEB050081B2009009EA7D
:101B50004502381B924680B2FFF78CFF0098524630
:101B600081B2381980B2FFF785FF8CB1ABEB04006E
:101B700081B2009009EA4402781B924680B2FFF7D6
:101B800079FF0098524681B2781980B2FFF772FF50
:101B9000002E03DA06EB8406B61D04E0601B06EB9C
:101BA00080066D1E0A36641CAC42CBD942465946AB
:101BB0003846BDE8F84FFFF71DBD00002DE9F041A4
:101BC0001D4614464A19521E93B20219521E92B271
:101BD00000F040F81D4801680B684FF6BF721340D3
:101BE0000B6001680B6843F400630B6001680B68CD
:101BF00043F040030B60164BD1079961002100F6BA
:101C000058066C4308E007683568FD600568AF68F2
:101C1000BF07FCD5491C89B28C42F4DC01688C6892
:101C20002406FCD44FF400449C610B6813400B6005
:101C300001680A684FF2FF731A400A600068016881
:101C400041F040010160BDE8F0810000D4000020B7
:101C5000000002402DE9F047194D80464FF000404A
:101C6000994616460F46A8612A2000F05FFE154CE3
:101C7000A17B01EB080080B200F07CFEA07B304429
:101C800080B200F077FE2B2000F050FEE07B38445D
:101C900080B200F06FFEE17B01EB090080B200F042
:101CA00069FE2C2000F042FEA4F65800006881680E
:101CB0000906FCD44FF40040A861BDE8F08700009D
:101CC000000002402C090020014908607047000014
:101CD000780000204FF478414FF4FC6201EA1021B3
:101CE00002EA5012C0F3C4001143014301484160AD
:101CF000704700002C0900204FF478414FF4FC623B
:101D000001EA102102EA5012C0F3C400114301435A
:101D100001480160704700002C0900202DE9F041C6
:101D20001E4CDFF87C804FF000426072C8F818202B
:101D30000026F02538B102280AD0502701281CD0EF
:101D4000032822D00EE0362000F0F0FD702003E0E2
:101D5000362000F0EBFD002000F01CFEA673E673B9
:101D60006581A5810F48006881680906FCD44FF49D
:101D70000041C8F81810BDE8F081362000F0D6FD0B
:101D8000A02000F007FEA773E9E7362000F0CEFDA3
:101D9000C02000F0FFFDA673E773E1E72C090020E7
:101DA00000000240D40000200C49486080881428BC
:101DB0000FD005DC0C280AD0102807D1084804E011
:101DC000182808D0202801D1064808607047064826
:101DD000FBE70648F9E70648F7E70000780000202F
:101DE000600000203C0000206C0000205400002017
:101DF0004800002001490872704700002C090020AB
:101E00002DE9F05F00242548FFF7CEFF0020FFF703
:101E100073FFDFF89090DFF888B0214D214E224FFC
:101E2000DFF88880DFF888A009F17F090BF17F0BCC
:101E3000082C0AD2DFE804F004062426282A2C2ED7
:101E4000284600E03046FFF745FFFFF737FA19A2B2
:101E500046210D20FFF7AAFB1AA26A210D20FFF7E9
:101E6000A5FB1DA28E210D20FFF7A0FB4FF47A7079
:101E7000FEF768FC641CE4B2082CD9D3BDE8F09FDF
:101E80003846E0E74046DEE74846DCE75046DAE71A
:101E90005846D8E76FF07F40D5E7000024000020C7
:101EA0008080FF0080FF8000FF80800080FFFF00B7
:101EB000A3A3A30053544D333220CBA2C6C1B2E238
:101EC000CAD40000C6C1C4BBB7D6B1E6C2CA3A3252
:101ED00034302A3234300000BFD8D6C6C6F73A5361
:101EE000543737383900000070B50020FFF7F2FE94
:101EF000FFF7E4F95948FFF757FF6FF07F40FFF70E
:101F0000FBFE002156A20846FFF750FB00244FF4C9
:101F10007F0500BFA5EB0440FFF7EEFE0A22142167
:101F20002046FFF7A7FD641CA4B2F02CF2D30024D6
:101F30004FF47F45A5EB0420FFF7DEFE0A222321A4
:101F40002046FFF797FD641CA4B2F02CF2D30024C6
:101F5000C4F1FF00FFF7D0FE0A2232212046FFF72E
:101F600089FD641CA4B2F02CF2D346243F48FFF74D
:101F7000C3FE4B210A235A229620FFF71FFE3CA2E4
:101F800021460020FFF7F4FA3C48FFF7B5FE5F2139
:101F90000A235A229620FFF711FE5A2138A2002068
:101FA000FFF7E6FA3A48FFF7A7FE73210A235A2201
:101FB0009620FFF703FE6E2136A20020FFF7D8FA25
:101FC0003848FFF799FE87210A235A229620FFF707
:101FD000F5FD822134A20020FFF7CAFA48F2800002
:101FE000FFF78AFE9B210A235A229620FFF7E6FD7F
:101FF000962130A20020FFF7BBFA4FF08010FFF7C8
:102000007BFEAF210A235A229620FFF7D7FDAA2193
:102010002BA20020FFF7ACFA2D48FFF76DFEC3217D
:102020000A235A229620FFF7C9FDBE2129A20020CB
:10203000FFF79EFA2A48FFF75FFED7210A235A22AC
:102040009620FFF7BBFDD22126A20020FFF790FAD1
:10205000BDE870404FF4FA60FEF774BB1800002032
:10206000524742C8FDBBF9C9AB3A0000FFFF8000F0
:102070004C494748545F4359414E0000FF80FF00E0
:102080004C494748545F4D4147454E54410000007C
:1020900080FFFF004C494748545F59454C4C4F570F
:1020A00000000000A3A3A3004C494748545F4752D7
:1020B000455900004441524B5F4359414E000000D6
:1020C0004441524B5F4D4147454E54410000000092
:1020D000008080004441524B5F59454C4C4F5700A3
:1020E000404040004441524B5F4752455900000078
:1020F0002DE9F843294E2A4F2A4DDFF8AC80002401
:102100004FF47A790020FFF7E5FDFFF7D7F827486D
:10211000FFF74AFE3046FFF7EFFD34B1012C09D03E
:10212000022C31D0032C0DD133E00220FFF7F6FD55
:102130001FA203E00020FFF7F1FD20A214210846B2
:10214000FFF734FA3846FFF7D7FD53231A465021DC
:1021500013200095FFF780FB1B48FFF725FE404644
:10216000FFF7CAFD19A25A218220FFF71FFA822128
:1021700018A20846FFF71AFA4846FEF7E3FA641C6D
:10218000042CBFDBBDE8F8830320FFF7C7FD13A2D3
:10219000D4E70120FFF7C2FD15A2CFE7FBF9DFFF6F
:1021A0008DE5F6FF629F0008A8D39DFF2400002064
:1021B000446972656374696F6E5F56004469726545
:1021C0006374696F6E5F480030000020B7B4BFCD04
:1021D00000000000BFC6BCBC00000000446972657E
:1021E0006374696F6E5F565F466C69700000000033
:1021F000446972656374696F6E5F485F466C6970AD
:102200000000000010B50020FFF764FDFFF756F84E
:102210006FF07F40FFF770FDF02300211A4608465B
:10222000FFF766FC4FF47F00FFF766FD1E223221A8
:102230008C20FFF77AFC4FF47F40FFF75DFD1E22F4
:102240003221AA20FFF771FCFF20FFF755FD1E2267
:102250003221C820FFF769FC2948FFF74DFD1A21FC
:10226000402371220846FFF787FB51236A2216217B
:102270002320FFF781FB64235D2214212D20FFF72B
:102280007BFB6C23452210213420FFF775FB6C2368
:102290002C2210213E20FFF76FFB1A48FFF72CFD80
:1022A0001E22AA217820FFF7A5F91422AA2178205E
:1022B000FFF7A0F91448FFF71FFD28235A22AA218F
:1022C0007820FFF7DDF928234622AA217820FFF79E
:1022D000D7F90D487F30FFF70FFD32236422AA2182
:1022E0007820FFF7CDF93C236E22AA217820FFF752
:1022F000C7F9BDE810404FF4FA60FEF723BA0000BA
:1023000000FFFF00FFFF80008080FF0008B5002075
:10231000FFF7E0FCFEF7D2FF1848FFF7EDFC184886
:10232000532300901A4615211320FFF795FA1548FC
:10233000FFF7E2FC1448532300901A4615218D2024
:10234000FFF78AFA1148FFF7D7FC11485323009092
:102350001A468C211320FFF77FFA0E48FFF7CCFCBA
:102360000D48532300901A468C218D20FFF774FAF4
:10237000BDE808404FF4FA60FEF7E4B98DE5F6FFDA
:10238000629F0008FBF9DFFFF3A20008A8D39DFFBE
:1023900084A600085387FFFF15AA000870B5002027
:1023A000FFF798FCFEF78AFF6FF07F442046FFF7A7
:1023B000A3FC5648FFF788FC002155A20846FFF70A
:1023C000D7F85748FFF780FC56A220210020FFF7DE
:1023D000CFF85A48FFF778FC59A238210020FFF7C0
:1023E000C7F85E48FFF770FC5DA24C210020FFF7A4
:1023F000BFF86348FFF768FC62A25C210020FFF78A
:10240000B7F82012FFF778FC5D48FFF75DFC68A283
:1024100068210020FFF7ACF85048FFF755FC6FA289
:1024200074210020FFF7A4F84448FFF74DFC73A285
:1024300084210020FFF79CF83948FFF745FC76A27D
:1024400098210020FFF794F83048FFF73DFC78A270
:10245000B0210020FFF78CF87948FFF7A5FC7948F8
:10246000FFF74AFC78A2D8210020FFF79FF84FF42D
:10247000FA652846FEF766F9FEF720FF7548FFF774
:1024800093FC7548FFF738FC74A20A210E20FFF771
:102490008DF87648FFF788FC7548FFF72DFC75A28C
:1024A0001E210E20FFF782F87648FFF77DFC764864
:1024B000FFF722FC75A23C210E20FFF777F8604859
:1024C000FFF772FC7548FFF717FC75A25A210E2022
:1024D000FFF76CF87648FFF767FC7648FFF70CFCCF
:1024E00075A282210E20FFF761F85548FFF75CFCCA
:1024F0002046FFF701FC74A2B4210E20FFF756F826
:102500002846BDE87040FEF71DB900003C000020E1
:102510002123242728292A2B2C2D2E303132330039
:10252000480000202123242728292A2B2C2D2E3057
:102530003132333435363738000000005400002083
:102540002123242728292A2B2C2D2E3031323334D5
:1025500035363738393A3B3C000000006000002037
:102560002123242728292A2B2C2D2E3031323334B5
:1025700035363738393A3B3C3D3E3F40414200001A
:102580006C0000202123242728292A2B2C2D2E30D3
:102590003132333435363738393A3B3C3D3E3F40B3
:1025A0004142434445464748494A4B4C00000000DD
:1025B0002123262728292A2B2C2D2E303132333463
:1025C00035363738393A3B3C3D3E3F404142434443
:1025D00045464748494A4B4C000000002123262726
:1025E00028292A2B2C2D2E303132333435363738EA
:1025F000393A3B3C3D3E3F404142000021232627E3
:1026000028292A2B2C2D2E303132333435363738C9
:10261000393A3B3C000000002123262728292A2B99
:102620002C2D2E303132333435363738000000004F
:102630002123262728292A2B2C2D2E303132330016
:102640002400002000FFFF004153434949D7D6B77B
:10265000FBBCAF0000000020D1C68A00313231320D
:102660003AB7B4BFCDBFC6BCBC0000000C00002010
:10267000A5E1C500313631363AB7B4BFCDBFC6BCCF
:10268000BC0000001800002049B5FF003230323095
:102690003AB7B4BFCDBFC6BCBC0000005D58FF0058
:1026A000323432343AB7B4BFCDBFC6BCBC00000030
:1026B00030000020B9B6FF00333233323AB7B4BF2E
:1026C000CDBFC6BCBC000000D6D0CEC4CFD4CABEDD
:1026D000000000002DE9F05F4FF000082DED088BA1
:1026E000464647469FED599B9FED5A8B4046FFF764
:1026F000F1FAFEF7E3FD5948FFF756FB5848FFF79C
:10270000FBFA58A20A210020FEF750FF57A2282109
:102710000020FEF74BFFDFF85C914846FFF7ECFA2C
:1027200055A250210020FEF741FF56A26E21002045
:10273000FEF73CFFDFF854A15046FFF7DDFA54A244
:1027400096210020FEF732FF53A2B4210020FEF7AD
:102750002DFF0024CB469FED52AB9FED53BB40486D
:10276000FFF7CAFA0120FFF745FB04EB840006EBF4
:10277000400204230A215020FEF7DCFE604200EBF9
:10278000800007EB4002042328215020FEF7D2FEF0
:102790005846FFF7B1FA0120FFF72CFBC4EB0410F9
:1027A00000EB800508EB4502082350218220FEF74C
:1027B000C1FE0020FFF71EFB06EB450208236E2139
:1027C0008220FEF7B7FE5046FFF796FA0120FFF78A
:1027D00011FB2046FDF752FE894649EC100B0546D9
:1027E00053EC1A2B51EC100BFDF7D6FD53EC192BC3
:1027F000FDF72BFD41EC100B0323062296216420EC
:10280000FEF778FE49EC105B53EC1B2B51EC100BE0
:10281000FDF7C2FD53EC182BFDF717FD41EC100B33
:1028200004230B22B4216420FEF764FE0F20FDF781
:1028300089FF641CA4B2642C91D3BDEC088B40F6D4
:10284000C410BDE8F05FFDF77DBF00004AD8124D0F
:10285000FB2109404ED1915C7E4893C024000020AA
:10286000FFFF8000D5FDCAFD3A000000B8BACAFDDE
:102870003A00000080FFFF00CCEEB3E4BFD5B8F112
:102880003A000000CCEEB3E4303A00008080FF0054
:10289000D5FDD0A1CAFD3A00B8BAD0A1CAFD3A0010
:1028A0009A9999999999B93F7B14AE47E17A843FF7
:1028B000F0B51C4A13681D684FF6BF7425401D60B3
:1028C00013681D6845F400651D6013681D6845F0B8
:1028D00040051D60144DE307AB61002309E000BF14
:1028E000176830F81360FE601668B768BF07FCD53C
:1028F0005B1C8B42F4D3106881680906FCD44FF44A
:102900000041A961016821400160106801684FF22F
:10291000FF73194001601068016841F040010160D7
:10292000F0BD0000D4000020000002402DE9F0417D
:102930000E4C0746206881680906FCD40C4E4FF403
:102940000055002229463046FEF706F82068C76089
:10295000226890688007FCD590680006FCD4294660
:102960003046BDE8F0410122FDF7F6BFD40000205B
:10297000000C02400649020A0B68DA600A68936894
:102980009B07FCD5D060086881688907FCD5704733
:10299000D400002003490A68D0600868816889076C
:1029A000FCD57047D400002030B587B014216846AC
:1029B000FDF740FC0D480024016841F0040101606E
:1029C00000680B4D00F004000590224601212846C6
:1029D000FDF7C2FF01210091CDE9011469462846A7
:1029E0000394FDF7C1FE07B030BD0000303802404F
:1029F0000008024010B5124C10484FF400712060DE
:102A00004FF4827060604FF40040A0600020E060EE
:102A10002061C4E90501E06120626062A062E062B9
:102A20002046FEF7D1FA2068016841F040010160BC
:102A30002068016841F48041016010BD003C004005
:102A4000D4000020FEE7FEE77047000010B5FFF756
:102A5000D1FF0A20FDF776FE6D4C4FF00040A061DB
:102A60003620FFF763FF0020FFF794FF3A20FFF7BF
:102A70005DFF0520FFF78EFFB220FFF757FF0C2008
:102A8000FFF788FF0C20FFF785FF0020FFF782FF8C
:102A90003320FFF77FFF3320FFF77CFFB720FFF7DE
:102AA00045FF3520FFF776FFBB20FFF73FFF1920DA
:102AB000FFF770FFC020FFF739FF2C20FFF76AFFF8
:102AC000C220FFF733FF0120FFF764FFC320FFF7A9
:102AD0002DFF1220FFF75EFFC420FFF727FF202005
:102AE000FFF758FFC620FFF721FF0F20FFF752FF27
:102AF000D020FFF71BFFA420FFF74CFFA120FFF71A
:102B000049FFE020FFF712FFD020FFF743FF04202A
:102B1000FFF740FF0D20FFF73DFF1120FFF73AFFC1
:102B20001320FFF737FF2B20FFF734FF3F20FFF77D
:102B300031FF5420FFF72EFF4C20FFF72BFF18200A
:102B4000FFF728FF0D20FFF725FF0B20FFF722FFDF
:102B50001F20FFF71FFF2320FFF71CFFE120FFF7D7
:102B6000E5FED020FFF716FF0420FFF713FF0C202F
:102B7000FFF710FF1120FFF70DFF1320FFF70AFFEB
:102B80002C20FFF707FF3F20FFF704FF4420FFF74B
:102B900001FF5120FFF7FEFE2F20FFF7FBFE1F2055
:102BA000FFF7F8FE1F20FFF7F5FE2020FFF7F2FEEB
:102BB0002320FFF7EFFE2120FFF7B8FE1120FFF7DB
:102BC000B5FE7820FDF7BEFD2920FFF7AFFE1148C6
:102BD000006881680906FCD44FF40040A06102201F
:102BE000FFF79CF80020FFF775F86FF07F40FFF7C4
:102BF00083F8FEF763FB094907480122086008498A
:102C000000200872BDE8104011030648FDF7A4BE7D
:102C100000000240D400002048000020780000207E
:102C20002C090020000C02407047FDF7A1BE0000F7
:102C300030B593B030216846FDF7FCFA14210CA89A
:102C4000FDF7F8FA1E480025016841F08051016047
:102C5000006800F0805011901A48016841F48041EA
:102C600001600068022400F480401190012000906F
:102C7000000401908001CDE90640082008904FF43F
:102C8000A870CDE9090404200B906846FDF7E6FF23
:102C900008B172B6FEE70CA90F2081E831004FF4AD
:102CA000A0500F904FF48050109005210CA8FDF714
:102CB000EBFE002801D072B6FEE713B030BD000075
:102CC00040380240007000400248016841F4700141
:102CD0000160704788ED00E070B504460068016946
:102CE000E26821F44051114301612169A068E26961
:102CF00008436169114308432168CA6849F20C63BB
:102D00009A430243CA6020684169A26921F4407174
:102D10001143416131492068884202D030498842DC
:102D200002D1FDF75BFF01E0FDF748FFE2690023F8
:102D3000192164253226B2F5004F626828D0A0FB25
:102D40000101930F9200FDF73DFA0146B0FBF5F04B
:102D50006FF01802504301EB800006EB0010B0FB4F
:102D6000F5F000F0F002B1FBF5F002EB0012B1FB60
:102D7000F5F06FF01803584301EB800006EB0010EC
:102D8000B0FBF5F000F00F0021681044886070BDC2
:102D9000A0FB010192185B41FDF714FA0146B0FB5C
:102DA000F5F00201B1FBF5F06FF01803584301EBA9
:102DB000800006EBC000B0FBF5F000F0F80002EB7D
:102DC0004002B1FBF5F0584301EB800006EBC00078
:102DD000B0FBF5F000F00700D6E70000001001405E
:102DE000001401400848074901604FF4E131416097
:102DF000002181600822C160C0E904128161C161C3
:102E0000FEF7E4B90010014090000020FEE700004A
:102E10000FB4084B10B504A902AA039800F0EEF80D
:102E2000044602A9002000F06CFC204610BC5DF8AE
:102E300014FB0000033700080907090E002804DB13
:102E400000F1E02080F80014704700F00F0000F15E
:102E5000E02080F8141D704702E008C8121F08C166
:102E6000002AFAD170477047002001E001C1121F0B
:102E7000002AFBD1704700002DE9FF5F82B00021DE
:102E8000DDE90430020DDDF840B0034318D044F60C
:102E90001050A2F2FF3242431514119801281FD09E
:102EA000A5EB0B00401C5FEA000A4FF000064E4FF6
:102EB000DFF83891B046504615D5CAF1000413E04A
:102EC000119801244AA3012801D16FEA0B0102984D
:102ED000119AC0E90031C0E9024206B0BDE8F09F96
:102EE000CBF10000DFE704460021404A491842EBDD
:102EF0000450CDE9001012E0E00707D032463B460F
:102F000040464946FDF748FA8046894632463B46E8
:102F100010461946FDF740FA06460F466410002C8D
:102F2000EAD1DDE90401DDE90023BAF1000F06DA98
:102F3000FDF732FA42464B46FDF72EFA05E0FDF763
:102F40004EFB42464B46FDF74AFB04460E46002226
:102F5000284BFDF7CBFB03D84FF0FF30014607E0CD
:102F60000022254B20463146FDF76FF9FDF7A6FB01
:102F7000102409E0002C0ADB0A220023FDF722F9C5
:102F8000039B30321A55641E50EA0102F2D1641CD0
:102F9000039AC4F111031444119A012A03D00122A7
:102FA00008430DD10AE0084304D000204FF0110B74
:102FB000119072E7A3EB0B056D1E0DE05B4504DD80
:102FC0004FF0000205F1010504E003DA4FF00002C2
:102FD000A5F10105002AECD002981199C0E902314F
:102FE000C0E9004579E70000000014400000F03F10
:102FF000300000000000F0430000E03F2DE9FF4FEB
:1030000095B09A46884606460025EEE1252877D1F8
:1030100000242746F94A0121039400E0044316F8EE
:10302000013F203B01FA03F01042F7D130782A2803
:1030300011D06FF02F033078A0F13002092A16D892
:10304000039A44F0020402EB820203EB42021044B2
:10305000761C0390EFE758F8042B0392002A03DA5A
:10306000504244F40054039044F00204761C30783B
:103070002E2816D116F8010F44F004042A280DD08A
:103080006FF02F023078A0F13003092B09D807EB3D
:10309000870302EB4303C718761CF3E758F8047B59
:1030A000761C30786C280FD006DC4C2817D06828A6
:1030B0000DD06A2814D104E0742810D07A280FD1DA
:1030C0000DE044F400140AE044F4801401E044F4F8
:1030D00040147278824202D104F58014761C761C6A
:1030E000307866280BD013DC582877D009DC00280C
:1030F00075D04528F6D04628F4D047281AD193E158
:1031000018E0632835D0642879D0652812D18BE186
:10311000702873D008DC6728F1D069286FD06E283A
:103120000DD06F2806D1ACE073282CD0752874D050
:10313000782853D05246179990476D1C54E1C4F338
:103140000250022809D003280DD0D8F80010042816
:103150000DD00D6008F1040846E1D8F80010EA1718
:10316000C1E90052F6E7D8F800100D80F2E70D70C3
:10317000F0E718F8041B8DF8001000208DF801000E
:10318000EB46012003E058F804BB4FF0FF30610725
:103190004FF0000102D40DE009F101018946B94266
:1031A0000FDA8145F8DB1BF809100029F4D108E09B
:1031B00009F1010189468142FADB1BF80910002957
:1031C000F6D103985346A0EB090721463846179AD3
:1031D00000F080FA284400EB090507E044E008E12C
:1031E0000DE01BF8010B524617999047B9F1010900
:1031F000F7D2534621463846179AF2E039E00A21C1
:10320000C4F302524FF0000B0091022A06D058F886
:10321000040BC117032A09D00AE023E008F10700D4
:1032200020F00702F2E80201904605E000B2C11763
:10323000042A01D140B2C117002906DA0A4600214A
:10324000404261EB02012D2202E0220504D52B222F
:103250008DF80420012203E0E20701D02022F7E7E5
:10326000914657E00A2100E010214FF0000B009139
:103270000BE010214FF0000B44F0040408270091EC
:1032800003E008204FF0000B0090C4F30252022A22
:1032900005D058F8040B0021032A08D008E008F1F3
:1032A000070020F00702F2E80201904603E080B236
:1032B000042A00D1C0B24FF0000922072AD5327883
:1032C000702A07D0DDF800C08CF0100C5CEA0B0C03
:1032D00005D00EE040228DF80420012208E050EADB
:1032E000010306D030238DF804308DF8052002222A
:1032F0009146009B83F0080353EA0B030AD150EA7E
:10330000010201D1620705D530228DF804204FF06B
:1033100001097F1E3278582A04D039A20C920CAAD7
:1033200002920BE03BA2F9E75B46009AFCF74AFFEA
:103330000C9B9B5C029A521E0292137050EA01028F
:10334000F2D1029804A9081A00F1200B600702D5F7
:1033500024F4803400E001275F4502DDA7EB0B0079
:1033600000E0002000EB0B01009003984944401A54
:103370000390E00306D453462146179A039800F0C1
:10338000A9F90544002706E001A85246C05D179937
:1033900090476D1C7F1C4F45F6DBE0030CD5534670
:1033A0002146179A039800F095F9054404E030206F
:1033B0005246179990476D1C0099481E00900029AD
:1033C000F5DC08E00298029952460078491C029107
:1033D000179990476D1CBBF10001ABF1010BF1DCBB
:1033E0005BE100F065F90544761C307800287FF435
:1033F0000DAE19B02846BDE8F08F00000928010085
:10340000303132333435363738396162636465665A
:10341000000000003031323334353637383941421C
:103420004344454600000000600700D4062708F129
:10343000070020F00700F0E80223804603F0004C6C
:103440005FEA0C0001D097A009E0200501D596A005
:1034500005E0E00701D095A001E0AFF24C00139029
:10346000307823F0004365280CD006DC452809D0CD
:1034700046281DD047287FD13BE0662818D0672812
:103480007AD136E00021112F01DB112000E0781CF9
:10349000CDE9000104A90CA8FFF7EEFCDDE90D0160
:1034A0000C9A4FF0000B07F10109109200914EE0C9
:1034B0004FF000400097CDE9011004A90CA8FFF7D8
:1034C000DBFCDDE90D020C9B0F994FF0000B9146E0
:1034D0001093009211B9791C00EB0109B7EB0900B8
:1034E00003D4C0F1FF3B07F10109A9EB07000190EC
:1034F00042E0012F00DA01270021112F01DD112008
:1035000000E03846CDE9000104A90CA8FFF7B4FC9F
:10351000DDE90D010C9A00914FF0000BB9461092B5
:1035200021070FD4009A4A4503DA914601E0A9F138
:103530000109B9F1010F05DD109AA9F10101515CF2
:103540003029F4D0B84202DA10F1040F03DA012175
:10355000CDE9011010E0002803DC8344A9EB000151
:1035600002E0411C494500DD8946A0EB0B00401CF0
:1035700001904FF000400290200705D40198484583
:1035800002DB4FF0FF30019000208DF84B000298D5
:103590000DF14B07B0F1004F25D002200C902B20ED
:1035A0000D90029800280CDA404202902D200D90D8
:1035B00007E00A210298FCF76EFF3031029007F80D
:1035C000011D0C99481E0C900029F2DC029800287D
:1035D000EFD1791E0D980870307800F0200040F08F
:1035E000450007F8020D11A8C01BC01D02901398DA
:1035F000007800B1012000EB0901019801EBE071B6
:10360000029801440398401A401E0390E00306D438
:1036100053462146179A039800F05CF80544139826
:10362000007818B15246179990476D1CE00323D5D6
:1036300053462146179A039800F04CF805441BE0C6
:10364000BBF1000F07DB0098584504DD109817996F
:1036500010F80B0001E0179930205246904701986E
:103660000BF1010B401E05F10105019004D12E2044
:103670005246179990476D1CB9F10001A9F1010953
:10368000DEDC05E017F8010B5246179990476D1CD8
:103690000299481E02900029F4DC53462146179AED
:1036A00003989EE62D0000002B0000002000000083
:1036B0002DE9F041044600251E461746880404D42F
:1036C00005E039462020B0476D1C641EF9D5284618
:1036D000BDE8F0812DE9F041044600251E469046E4
:1036E000C80301D5302700E02027880404D505E071
:1036F00041463846B0476D1C641EF9D52846BDE8E2
:10370000F0810A68531C0B6010707047FDF738F9A0
:10371000FFF78EFAFFF748F9FFF764FBFFF796F91A
:10372000FEF76EFBFEF73AFEFEF7D4FFFEF7DCFB7A
:10373000FEF768FDFEF7EAFDFEF7DAFCF0E70000B1
:1037400000000000FC070400FC031402A401660052
:103750009E0700000000B7B4000000000000000059
:103760000000000000000000000000000000000059
:1037700000006000FE07FA031601FF0FFC030402BD
:10378000FC0300000000BFCD0000000000000000AE
:103790000000000000000000000000000000000029
:1037A000000000017F0184013F014C01F607050183
:1037B000040100000000BFC600000000000000007F
:1037C00000000000000000000000000000000000F9
:1037D000000000008400FF078400FC032703C400EE
:1037E000370700000000BCBC000000000000000023
:1037F00000000000000000000000000000000000C9
:1038000000000000000000000000000000000000B8
:1038100000000000000000000000000000000000A8
:103820000000000000000000000000000000000098
:103830000000000000000000000000000000000088
:103840000000000000000000000000000000000078
:103850000000000000000000000000000000000068
:103860000000000000000000000000000000000058
:103870000000000000000000000000000000000048
:103880000000000000000000000000000000000038
:103890000000000000000000000000000000000028
:1038A0000000000000000000000000000000000018
:1038B0000000000000000000000000000000000008
:1038C00000000000000000000000000000000000F8
:1038D00000000000000000000000000000000000E8
:1038E00000000000000000000000000000000000D8
:1038F00000000000000000000000000000000000C8
:1039000000000000000000000000000000000000B7
:1039100000000000000000000000000000000000A7
:10392000000000000000FC1F0400FC0F1408240429
:103930006402860162071D38000000000000B7B471
:103940000000000000000000000000000000000077
:103950000000000000000000000000000000000067
:10396000000000000000C000FE1FF2071802E60180
:103970001F3EF8070804F807000000000000BFCD54
:103980000000000000000000000000000000000037
:103990000000000000000000000000000000000027
:1039A0000000000000000008BE09080BFE0898098E
:1039B000EC3F0A0808080808000000000000BFC625
:1039C00000000000000000000000000000000000F7
:1039D00000000000000000000000000000000000E7
:1039E0000000000000000402FF3F0402E41F4C102E
:1039F0008708040784077738000000000000BCBC7B
:103A000000000000000000000000000000000000B6
:103A100000000000000000000000000000000000A6
:103A20000000000000000000000000000000000096
:103A30000000000000000000000000000000000086
:103A40000000000000000000000000000000000076
:103A50000000000000000000000000000000000066
:103A60000000000000000000000000000000000056
:103A70000000000000000000000000000000000046
:103A80000000000000000000000000000000000036
:103A90000000000000000000000000000000000026
:103AA0000000000000000000000000000000000016
:103AB0000000000000000000000000000000000006
:103AC00000000000000000000000000000000000F6
:103AD00000000000000000000000000000000000E6
:103AE00000000000000000000000000000000000D6
:103AF00000000000000000000000000000000000C6
:103B000000000000000000000000000000000000B5
:103B100000000000000000000000000000000000A5
:103B20000000000000000000000000000000000095
:103B30000000000000000000000000000000000085
:103B40000000000000000000000000000000000075
:103B50000000000000000000000000000000000065
:103B60000000000000000000000000000000000055
:103B70000000000000000000000000000000000045
:103B80000000000000000000000000000000000035
:103B90000000000000000000000000000000000025
:103BA0000000000000000000000000000000E00332
:103BB000F81F00080000080000F8FF014880018895
:103BC000C000086100083600041C0084E300720095
:103BD00007000000000000000000B7B40000000073
:103BE00000000000000000000000000000000000D5
:103BF00000000000000000000000000000000000C5
:103C000000000000000000000000000000000000B4
:103C100000000000000000000000000000000000A4
:103C20000000000000000100000300FEFF01620030
:103C300001F87F007E3000800F007FF003F87F00E6
:103C4000084000F87F00084000000000000000006D
:103C50000000BFCD000000000000000000000000D8
:103C60000000000000000000000000000000000054
:103C70000000000000000000000000000000000044
:103C80000000000000000000000000000000000034
:103C900000000000000000000000000000E0400004
:103CA0001E4600104C00105800FE430010460078DD
:103CB0004C00DC400014F003924F00104000104014
:103CC00000000000000000000000BFC6000000006F
:103CD00000000000000000000000000000000000E4
:103CE00000000000000000000000000000000000D4
:103CF00000000000000000000000000000000000C4
:103D000000000000000000000000000000000000B3
:103D10000000000000081000081000FFFF0308105A
:103D200000081000E8FF011C02010B8600086C006F
:103D3000081800086F00EF8003000000000000007A
:103D40000000BCBC000000000000000000000000FB
:103D50000000000000000000000000000000000063
:103D60000000000000000000000000000000000053
:103D70000000000000000000000000000000000043
:103D800000000000000000000000000000FCFF0335
:103D9000000000000000000000000000F8FF01002B
:103DA0000000000000000000000000000000FEFF16
:103DB00007000000000000000000C8FD2000000017
:103DC00000000000000000000000000000000000F3
:103DD00000000000000000000000000000000000E3
:103DE00000000000000000000000000000000000D3
:103DF00000000000000000000000000000000000C3
:103E00000000000000102000FEFF01102000F03F25
:103E100000102000F03F00102000FFFF03102100E1
:103E2000FCFF00030103FEFF010000000000000092
:103E30000000BBF9200000000000000000000000AE
:103E40000000000000000000000000000000000072
:103E50000000000000000000000000000000000062
:103E60000000000000000000000000000000000052
:103E70000000000000000000000000000040000002
:103E8000F01F00181800040C00FFFF00048200045B
:103E90008200FCFF00048000040000040002F8FF20
:103EA00001000000000000000000C9AB200000007D
:103EB0000000000000000000000000000000000002
:103EC00000000000000000000000000000000000F2
:103ED00000000000000000000000000000000000E2
:103EE00000000000000000000000000000000000D2
:103EF00000000000000000000000000000000000C2
:103F000000000000000000000000000000000000B1
:103F100000000000000000000000000000000000A1
:103F20000000000000000000000000000000000091
:103F30000000000000000000000000000000000081
:103F40000000000000000000000000000000000071
:103F50000000000000000000000000000000000061
:103F60000000000000000000000000000000000051
:103F70000000000000000000000000000000000041
:103F80000000000000000000000000000000000031
:103F90000000000000000000000000000000000021
:103FA0000000000000000000000000000000000011
:103FB0000000000000000000000000000000000001
:103FC00000000000000000000000000000000000F1
:103FD00000000000000000000000000000000000E1
:103FE00000000000000000000000000000000000D1
:103FF00000000000000000000000000000000000C1
:1040000000000000000000000000000000000000B0
:1040100000000000000000000000000000000000A0
:104020000000000000000000000000000000000090
:104030000000000000000000000000000000000080
:104040000000000000000000000000000000000070
:104050000000000000000000000000007FF8FF00EA
:10406000180000180000180000F8FF3F9801309871
:10407000031818030818060C180C060818030CF08F
:10408000000CF001061C0786033C7300E0000000F2
:10409000000000000000B7B40000000000000000B5
:1040A0000000000000000000000000000000000010
:1040B0000000000000000000000000000000000000
:1040C00000000000000000000000000000000000F0
:1040D00000000000000000000000000000000000E0
:1040E0000000000000000000000000100000700050
:1040F000FCFFFF0C07C08C03C0C0FF1FF0030E1CA9
:104100008E03007800C0C7073F00F8E0FF1F600083
:1041100018600018600018E0FF1F60001800000021
:10412000000000000000BFCD000000000000000003
:10413000000000000000000000000000000000007F
:10414000000000000000000000000000000000006F
:10415000000000000000000000000000000000005F
:10416000000000000000000000000000000000004F
:104170000000000000000000000000001880071888
:104180007E301860601860801960001BFE071860A0
:104190001818F0711870C3186806186C00FF66FED6
:1041A0001862001860001860001860001800000015
:1041B000000000000000BFC600000000000000007A
:1041C00000000000000000000000000000000000EF
:1041D00000000000000000000000000000000000DF
:1041E00000000000000000000000000000000000CF
:1041F00000000000000000000000000000000000BF
:104200000000000000000000000030000330000348
:1042100030000330FCFFFF010330000330000330A7
:10422000FE7FF019603F383030301830600C30C0FD
:104230000630800330E00E3038781F07C0000000E1
:10424000000000000000BCBC0000000000000000F6
:10425000000000000000000000000000000000005E
:10426000000000000000000000000000000000004E
:10427000000000000000000000000000000000003E
:10428000000000000000000000000000000000002E
:10429000000000000000000000000000C0F8FFC0A7
:1042A00018C0CC18C0CCF8FFCC18C0CC180CCC1857
:1042B0000CCCD8FFCCD8CCCCD8CCCCD8CCCCCCCC9B
:1042C000C0CCCCC004FCC0060C7E00000000000086
:1042D000000000000000CBA2200000000000000051
:1042E00000000000000000000000000000000000CE
:1042F00000000000000000000000000000000000BE
:1043000000000000000000000000000000000000AD
:10431000000000000000000000000000000000009D
:1043200000000000000000000000000000F8FF7F17
:10433000180060180060F8FF7F180666180C061851
:104340000803D8FF7F180C06180C06F8FFFF0C0CAA
:10435000060C0C0604060606030603010600000010
:10436000000000000000C6C12000000000000000A6
:10437000000000000000000000000000000000003D
:10438000000000000000000000000000000000002D
:10439000000000000000000000000000000000001D
:1043A000000000000000000000000000000000000D
:1043B000000000000000000000000200C084FFCCEC
:1043C0009CC1CC88C1CC80D9CC83D9CC8ED9CC9897
:1043D000D9CC80D9CC80D9CC88D9CC98CDCC0C0C78
:1043E000CC0C36C00C63C0C6C1C074807D00000018
:1043F000000000000000B2E2200000000000000009
:1044000000000000000000000000000000000000AC
:10441000000000000000000000000000000000009C
:10442000000000000000000000000000000000008C
:10443000000000000000000000000000000000007C
:104440000000000000000000000002001B0C0073D0
:1044500018004338000380FFFF0000031F0003180B
:10446000000398FF03181802181806981806D818A1
:104470008678188C38F88D9C0F980800F0000000A2
:10448000000000000000CAD420000000000000006E
:10449000000000000000000000000000000000001C
:1044A000000000000000000000000000000000000C
:1044B00000000000000000000000000000000000FC
:1044C00000000000000000000000000000000000EC
:1044D00000000000000000000000008301FEFFFF5C
:1044E000008301F0FF3F300030F0FF3F300030F03C
:1044F000FF3F300C30000600FEFFFFC0300CF8FF1D
:104500007F67309860301860301F00300000000076
:10451000000000000000C4BB2000000000000000FC
:10452000000000000000000000000000000000008B
:10453000000000000000000000000000000000007B
:10454000000000000000000000000000000000006B
:10455000000000000000000000000000000000005B
:104560000000000000000000000000630080C100A7
:10457000C0800160000330000618001C0E007002AD
:1045800000C0F8FF0F00030E00030E80010680013B
:1045900006C0000660000738FC030E0000000000A3
:1045A000000000000000B7D620000000000000005E
:1045B00000000000000000000000000000000000FB
:1045C00000000000000000000000000000000000EB
:1045D00000000000000000000000000000000000DB
:1045E00000000000000000000000000000000000CB
:1045F0000000000000000018600C306018306010EF
:10460000FEE1FF00600082EDC1C46C636C6C36FE9D
:1046100065FF306618306618306018FEB1FF303024
:10462000183818181C1C180E0E180202180000006A
:10463000000000000000B1E62000000000000000C3
:10464000000000000000000000000000000000006A
:10465000000000000000000000000000000000005A
:10466000000000000000000000000000000000004A
:10467000000000000000000000000000000000003A
:104680000000000000000000000000380000700082
:10469000FFFFFF003800064E608C6338D03F0800F3
:1046A0001C00202604F8C31CCFFFF102304100306B
:1046B00000FFFFFF0030000030000030000000006D
:1046C000000000000000C2CA20000000000000003E
:1046D00000000000000000000000000000000000DA
:1046E00000000000000000000000000000000000CA
:1046F00000000000000000000000000000000000BA
:1047000000000000000000000000000000000000A9
:104710000000000000000030800030800130000305
:1047200030FEFFFE06C03086C430401830303030D6
:104730001860F00FC03EF87F3000033000033000F7
:104740000330000330000330FFFF1E0000000000B4
:10475000000000000000BFD82000000000000000A2
:104760000000000000000000000000000000000049
:104770000000000000000000000000000000000039
:104780000000000000000000000000000000000029
:104790000000000000000000000000000000000019
:1047A000000000000000000000008001609801602F
:1047B0008C0163FC3F63860163820163FFFF6380BA
:1047C0000163800163FC7F638C61638C61638C6136
:1047D000608C61608C3D6080013F00000000000043
:1047E000000000000000D6C620000000000000000D
:1047F00000000000000000000000000000000000B9
:1048000000000000000000000000000000000000A8
:104810000000000000000000000000000000000098
:104820000000000000000000000000000000000088
:1048300000000000000000000000000000FCC77F36
:104840000CC6600CC660FCC77F0CC660003006FE5C
:10485000FFFF006E0000C701F0010F1F00F8FCC74A
:104860007F0CC6600CC660FCC77F0CC660000000F1
:10487000000000000000C6F720000000000000005B
:104880000000000000000000000000000000000028
:104890000000000000000000000000000000000018
:1048A0000000000000000000000000000000000008
:1048B00000000000000000000000000000000000F8
:1048C0000000000000000000080000180000300098
:1048D000FEFFFF0600C00600C0E0FF0F000007005B
:1048E000800100E000003000FFFFFF0030000030DA
:1048F00000003000003000801F00000000000000B9
:10490000000000000000D7D62000000000000000DA
:104910000000000000000000000000000000000097
:104920000000000000000000000000000000000087
:104930000000000000000000000000000000000077
:104940000000000000000000000000000000000067
:104950000000000000000020800130C000F8DFFFF0
:10496000C8600684710C02390801100060000C70E8
:10497000000CB8FFFF3C000C36040C320C0C301855
:104980000C30100C30000C30000C30E00700000040
:10499000000000000000B7FB200000000000000045
:1049A0000000000000000000000000000000000007
:1049B00000000000000000000000000000000000F7
:1049C00000000000000000000000000000000000E7
:1049D00000000000000000000000000000000000D7
:1049E00000000000000000000000C0300060E00097
:1049F000F0FFFF386000F6FFFF336000F0FFFF308C
:104A00006000F0FFFF300000003000003000FEFFCB
:104A1000FF00FE018031077030380F30C000000009
:104A2000000000000000BCAF2000000000000000FB
:104A30000000000000000000000000000000000076
:104A40000000000000000000000000000000000066
:104A50000000000000000000000000000000000056
:104A60000000000000000000000000000000000046
:104A70000000000000000000000000180000180006
:104A8000001800001800FCFF7F0C18600C18600C68
:104A900018600C18600C1860FCFF7F0C1860001880
:104AA00000001800001800001800001800000000A6
:104AB000000000000000D6D0200000000000000030
:104AC00000000000000000000000000000000000E6
:104AD00000000000000000000000000000000000D6
:104AE00000000000000000000000000000000000C6
:104AF00000000000000000000000000000000000B6
:104B000000000000000000001C00003800006000F1
:104B1000FFFFFF60000C60000CC00006C0000680B4
:104B2000010300830100C700006C0000380000EEA4
:104B300000C0830778003C0600E000000000000091
:104B4000000000000000CEC42000000000000000B3
:104B50000000000000000000000000000000000055
:104B60000000000000000000000000000000000045
:104B70000000000000000000000000000000000035
:104B80000000000000000000000000000000000025
:104B900000000000000000000000000000F8FF3FDF
:104BA000180030180030F8FF3F180030180030F8B7
:104BB000FF3F18003004C62008C63018C63830C67B
:104BC0001820C60800C600FEFFFF0000000000001D
:104BD000000000000000CFD4200000000000000012
:104BE00000000000000000000000000000000000C5
:104BF00000000000000000000000000000000000B5
:104C000000000000000000000000000000000000A4
:104C10000000000000000000000000000000000094
:104C200000000000000000000000000000FCFF7F0A
:104C3000000000000000000000000000FFFFFF0077
:104C4000300020300430300C3830181830300C3040
:104C5000600630C0023080003000801F000000007D
:104C6000000000000000CABE20000000000000009C
:104C70000000000000000000000000000000000034
:104C80000000000000000000000000000000000024
:104C90000000000000000000000000000000000014
:104CA0000000000000000000000000000000000004
:104CB00000000000000000000000000000FEFFFFF8
:104CC0000030000030000030003030003030003064
:104CD000300030F07F303000303000303000303085
:104CE00000303000303000FFFFFF00000000000007
:104CF000000000000000D5FD2000000000000000C2
:104D000000000000000000000000000000000000A3
:104D10000000000000000000000000000000000093
:104D20000000000000000000000000000000000083
:104D30000000000000000000000000000000000073
:104D400000000000000000000000000300800100DF
:104D5000C0FF076000033880010C6000F4FF3F30A3
:104D60000030303030303030303030303030303073
:104D70003030F83000980300070EE001781E00C0C4
:104D8000000000000000B8BA200000000000000091
:104D90000000000000000000000000000000000013
:104DA0000000000000000000000000000000000003
:104DB00000000000000000000000000000000000F3
:104DC00000000000000000000000000000000000E3
:104DD0000000000000000000000000300000300073
:104DE00000300000300060300630300C30301C18CD
:104DF00030381830300C30600E30E00630C00230F1
:104E000080003000003000C01F00000000000000E3
:104E1000000000000000D0A1200000000000000001
:104E20000000000000000000000000000000000082
:104E30000000000000000000000000000000000072
:104E40000000000000000000000000000000000062
:104E50000000000000000000000000000000000052
:104E600000000000000000000000C00003C60C01AC
:104E7000C48601C080FFFECF60E0C060F8E360CC74
:104E8000FE31C39831308031FF0F1B0C0C1B06061E
:104E90000E3C070EE0031BE0C3313C76E0071880B0
:104EA000000000000000CAFD20000000000000001B
:104EB00000000000000000000000000000000000F2
:104EC00000000000000000000000000000000000E2
:104ED00000000000000000000000000000000000D2
:104EE00000000000000000000000000000000000C2
:104EF000000000000000000000003000033000034C
:104F000030FEFF300003300003FFFD7F300C6030C7
:104F1000FC7F300C6030FC7F300C60B0FD7F780C83
:104F20006007FFFF00601C001CF080030000000011
:104F3000000000000000CCEE200000000000000097
:104F40000000000000000000000000000000000061
:104F50000000000000000000000000000000000051
:104F60000000000000000000000000000000000041
:104F70000000000000000000000000000000000031
:104F80000000000000000000000000080000180001
:104F9000003800FFFFFF000E00808301C000077093
:104FA000000CFCFF3F00C32000C30080C10080C193
:104FB000C0E0C0C038C0C007807F00000000000013
:104FC000000000000000B3E420000000000000002A
:104FD00000000000000000000000000000000000D1
:104FE00000000000000000000000000000000000C1
:104FF00000000000000000000000000000000000B1
:1050000000000000000000000000000000000000A0
:1050100000000000000000000000003800007000E8
:10502000FEFFFF0600C00686C3C0011E38007006E2
:1050300000C0000000F8FF3F001800001800001832
:1050400000001800001800FEFFFF00000000000034
:10505000000000000000BFD520000000000000009C
:105060000000000000000000000000000000000040
:105070000000000000000000000000000000000030
:105080000000000000000000000000000000000020
:105090000000000000000000000000000000000010
:1050A0000000000000000000000030600030300010
:1050B00030F07F307870FF5B3830CC0CF88007B868
:1050C000C10F3C7A78360EC033F87F311860301843
:1050D0006030186030186030F87F301860000000D1
:1050E000000000000000B8F12000000000000000F7
:1050F00000000000000000000000000000000000B0
:10510000000000000000000000000000000000009F
:10511000000000000000000000000000000000008F
:10512000000000000000000000000000000000007F
:10513000000000000000000000000000000000006F
:10514000000000000000000000000000000000005F
:10515000000000000000000000000000000000004F
:10516000000000000000000000000000000000003F
:10517000000000000000000000000000000000002F
:10518000000000000000000000000000000000001F
:10519000000000000000000000000000000000000F
:1051A00000000000000000000000000000000000FF
:1051B00000000000000000000000000000000000EF
:1051C00000000000000000000000000000000000DF
:1051D00000000000000000000000000000000000CF
:1051E00000000000000000000000000000000000BF
:1051F00000000000000000000000000000000000AF
:10520000000000000000000000000000000000009E
:10521000000000000000000000000000000000008E
:10522000000000000000000000000000000000007E
:10523000000000000000000000000000000000006E
:10524000000000000000000000000000000000005E
:10525000000000000000000000000000000000004E
:10526000000000000000000000000000000000003E
:10527000000000000000000000000000000000002E
:10528000000000000000000000000000000000001E
:10529000000000000000000000000000000000000E
:1052A00000000000000000000000000000000000FE
:1052B000C03FE0FFFF7FE0FF3F00600000006000B4
:1052C00000006000000060000000E0FFFF3FE0FF22
:1052D000FF3F600C0038601C001C6038000E60301E
:1052E000000E60E0000760C0C1037080E301300081
:1052F000FF0030003C003800FF001CE0E7031CFE0C
:10530000803FCE3F00FC840300C00000000000008E
:10531000000000000000B7B4000000000000000022
:10532000000000000000000000000000000000007D
:10533000000000000000000000000000000000006D
:10534000000000000000000000000000000000005D
:10535000000000000000000000000000000000004D
:10536000000000000000000000000000000000003D
:10537000000000000000000000000000000000002D
:10538000000000000000000000000000000000001D
:10539000000000000000000000000000000000000D
:1053A000000000000000000000000080000000C0BD
:1053B000030000800300FCFFFF7FFCFFFF7F0C0861
:1053C00000600C0E00600CFFFF6780FFFF07E00F1E
:1053D0008003781CE00118F87C0000C00F0000FF7B
:1053E000FF00FF1FF0FF3E0000FCC0FFFF07C0FFF3
:1053F000FF07C0000006C0000006C0000006C0FF96
:10540000FF07C0FFFF07C00000060000000000000B
:10541000000000000000BFCD000000000000000000
:10542000000000000000000000000000000000007C
:10543000000000000000000000000000000000006C
:10544000000000000000000000000000000000005C
:10545000000000000000000000000000000000004C
:10546000000000000000000000000000000000003C
:10547000000000000000000000000000000000002C
:10548000000000000000000000000000000000001C
:10549000000000000000000000000000000000000C
:1054A0000000000000000000000000000006001FD7
:1054B0000006FF3F0206FE000606C0000C06C00004
:1054C0001806C0003006FF1F2006FF1F0006C08020
:1054D0000006E0800306E0030706F0060C06F00C69
:1054E0000806D8180006DC10F0FFCEF0FFFFC7F06A
:1054F0001F06C7000006C2000006C0000006C0006C
:105500000006C0000006C0000006C0000006000043
:10551000000000000000BFC6000000000000000006
:10552000000000000000000000000000000000007B
:10553000000000000000000000000000000000006B
:10554000000000000000000000000000000000005B
:10555000000000000000000000000000000000004B
:10556000000000000000000000000000000000003B
:10557000000000000000000000000000000000002B
:10558000000000000000000000000000000000001B
:10559000000000000000000000000000000000000B
:1055A000000000000000000000000000000060009B
:1055B000C0006000C0006000C00060F0FFFFFFF7A7
:1055C000FFFFFF07C0006000C0006000C000600077
:1055D000C00060F6FF7FE0F7FF7FFC8001607F0086
:1055E0000330630003186000060C60000C076000C5
:1055F000B8036000F0016000F8016000BE0760E0E1
:105600000F7E7FFC01F83F3800C000000000000062
:10561000000000000000BCBC000000000000000012
:10562000000000000000000000000000000000007A
:10563000000000000000000000000000000000006A
:10564000000000000000000000000000000000005A
:10565000000000000000000000000000000000004A
:105CE0000000C003C003C003C003C003C00380039F
:105CF000800180018001800180018001800180019C
:105D00000000000000008001C003C003800100000B
:105D100000000000000000000000C018E01CE01CB3
:105D2000700E300618038C01840000000000000093
:105D30000000000000000000000000000000000063
:105D40000000000000000000000000000000000053
:105D50000000000000000000000000000000000043
:105D6000000020102010201020102010FE7FFE7F49
:105D7000FE7F100810081008100810081008FE7F99
:105D8000FE7FFE7F180C08040804080408040000C5
:105D90000000000000000000000000000000800083
:105DA0008000C003B00C90189818981C981CB8007C
:105DB000B000F000E000C0038007800F800C801C62
:105DC00080189C189C188C188C0C9806E003800096
:105DD00080008000000000000000000000000000C3
:105DE00000001C0836082204630463026302630295
:105DF000630163012201B61C9C364022406340636C
:105E0000206320631063106310220836081C000012
:105E10000000000000000000000000000000000082
:105E20000000F00098008C018C018C018C018C002A
:105E3000CC005C0038001C3E3C0832087308630448
:105E4000E304C3048303834306678C3E781C00008D
:105E5000000000000000000000001C003C003C00AE
:105E60003000300010000C000600000000000000B0
:105E70000000000000000000000000000000000022
:105E80000000000000000000000000000000000012
:105E90000000000000000000000000400020001092
:105EA0000018000C0004000600020003000380013B
:105EB00080018001800180018001800180018001DA
:105EC00000030003000200060004000C001800108C
:105ED0000020004000000000000002000400080054
:105EE00018003000200060004000C000C0008001A9
:105EF000800180018001800180018001800180019A
:105F0000C000C000C0006000200030001800080081
:105F1000040002000000000000000000000000007B
:105F20000000000000000003800380030C631C716C
:105F30003839600D80038003600D38391C718C6125
:105F400080038003800300000000000000000000C8
:105F50000000000000000000000000000000000041
:105F6000000000000000000000010001000100012D
:105F7000000100010001FC7F00010001000100019F
:105F8000000100010001000000000000000000000E
:105F90000000000000000000000000000000000001
:105FA00000000000000000000000000000000000F1
:105FB00000000000000000000000000000000000E1
:105FC0000000000000001C003C003C0030003000DD
:105FD00010000C000600000000000000000000009F
:105FE00000000000000000000000000000000000B1
:105FF000000000000000FE7F000000000000000024
:106000000000000000000000000000000000000090
:106010000000000000000000000000000000000080
:106020000000000000000000000000000000000070
:106030000000000000000000000000000000000060
:1060400000000000000018003C003C0018000000A8
:1060500000000000000000000000000000400060A0
:1060600000200030001000180008000C000400069A
:1060700000020003000180018000C00040006000B9
:10608000200030001000180008000C00040006007A
:1060900002000000000000000000000000000000FE
:1060A0000000C0036004300C1818181818100C30C9
:1060B0000C300C300C300C300C300C300C300C3000
:1060C0000C30181018181818300C6004C0030000A9
:1060D00000000000000000000000000000000000C0
:1060E000000000018001F801800180018001800131
:1060F0008001800180018001800180018001800198
:1061000080018001800180018001C003F81F000030
:10611000000000000000000000000000000000007F
:106120000000E007101C0818043004300C300C305C
:10613000003000180018000C000600038001C000A9
:1061400040002020102008200430FC1FFC1F00000D
:10615000000000000000000000000000000000003F
