:020000040800F2
:1000000030040020A1010008A70800083F080008EC
:10001000A508000829070008C50B0008000000001B
:100020000000000000000000000000006D09000852
:100030002B07000800000000A9080008250A000896
:10004000BB010008BB010008BB010008BB010008A0
:10005000BB010008BB010008BB010008BB01000890
:10006000BB010008BB010008BB010008BB01000880
:10007000BB010008BB010008BB010008BB01000870
:10008000BB010008BB010008BB010008BB01000860
:10009000BB010008BB010008BB010008BB01000850
:1000A000BB010008BB010008BB010008BB01000840
:1000B000BB010008BB010008BB010008BB01000830
:1000C000BB010008BB010008BB010008BB01000820
:1000D000BB010008BB010008BB010008BB01000810
:1000E000BB010008BB010008BB010008BB01000800
:1000F000BB010008BB010008BB010008BB010008F0
:10010000BB010008BB010008BB010008BB010008DF
:10011000BB010008BB010008BB010008BB010008CF
:10012000BB010008BB010008BB010008BB010008BF
:10013000BB010008BB010008BB010008BB010008AF
:10014000BB010008BB010008BB010008BB0100089F
:10015000BB010008BB010008BB010008BB0100088F
:10016000BB010008BB010008BB010008BB0100087F
:10017000BB010008BB010008BB010008BB0100086F
:10018000BB010008BB010008DFF810D000F02CFA1A
:1001900000480047FD140008AFF300803004002041
:1001A0000648804706480047FEE7FEE7FEE7FEE711
:1001B000FEE7FEE7FEE7FEE7FEE7FEE7290A0008A6
:1001C0008901000800F0004230F000400AD0C10D63
:1001D00001F56071C0F3160042EA0151C208400700
:1001E0001143704700200146704730B50B46014669
:1001F00000202022012409E021FA02F59D4205D3C6
:1002000003FA02F5491B04FA02F52844151EA2F16F
:100210000102F1DC30BD2DE9F05F05460020924679
:100220009B4688460646814640241BE028464146B8
:100230004746224600F0F9F953465A46C01A914102
:1002400010D311461846224600F0E0F92D1A67EB4C
:1002500001084F4622460120002100F0D7F917EB94
:1002600000094E41201EA4F10104DFDC484631465E
:100270002A464346BDE8F09F2DE9FE4F804681EABD
:100280000300C00F0C46009021F0004123F0004510
:10029000B8EB0200A94105D24046214690461C46D3
:1002A0000B46024623F00040104347D0270DC7F30A
:1002B0000A00C3F30A510290401A019040286BDAF9
:1002C000C3F3130040F4801B0098924620B1002332
:1002D000D2EB030A63EB0B0B01985946C0F14002C5
:1002E000504600F093F906460D4650465946019A8D
:1002F00000F0ABF910EB08006141002487EA1152CD
:1003000084EAE7731A4340D0009A62B3019A012A43
:100310004FEA075215DC001B61EB02014FF000426F
:1003200002EA0752CDE90042001C41F58011324635
:100330002B4600F0ABF903B0BDE8F08F40462146F4
:10034000F9E7001B61EB0201001C41F58013001866
:100350005B412018A2F5001747EB030140EAD57076
:10036000B6196D4111E06D084FEA360645EAC075D1
:100370004FEA0752001B61EB0201001C41F580119E
:1003800049084FEA30000019514132462B4603B06C
:10039000BDE8F04F00F06BB9009801224000002347
:1003A000D0EB020263EBE073009821464FEAE07461
:1003B000B8EB000061EB0401E9E783F000435BE781
:1003C00081F0004158E72DE9FE4F81EA030404F073
:1003D000004421F0004100944FF0000B23F0004353
:1003E00050EA01045ED052EA03045BD0C3F30A541E
:1003F000C1F30A552C44A4F2F3340194A0FB025437
:10040000C1F3130141F48011C3F3130343F48013C8
:1004100001FB024400FB034E840A970A44EA81541C
:1004200047EA8357A4FB076802958D0A05FB0785F9
:100430004FEA932C04FB0C542705029D4FEA065803
:1004400047EA1637B5EB08056EEB070C870E920EE0
:1004500047EA811742EA8312A7FB0201B6EB0B01C0
:1004600064EB00042B0D43EA0C335E1844EB1C5084
:10047000DA465146E7FB0201C5F313044FEA0B339A
:1004800043EA14534FEA0432019C43EA0603A4F101
:100490000C040294009CCDE900B400F0F7F803B01E
:1004A000BDE8F08F00200146F9E72DE9F04D81EA23
:1004B000030404F0004B21F0004514464FF0000AFD
:1004C00023F0004150EA050220D054EA01021DD079
:1004D000C5F30A570246C5F31303C1F31300C1F372
:1004E0000A5640F4801543F48013A7EB0608101B4E
:1004F000D64608F2FD3873EB050002D308F1010877
:1005000001E092185B41B8F1000F03DA00200146C8
:10051000BDE8F08D00204FF48011064684460EE0C1
:10052000171B73EB050705D3121B63EB050306438B
:100530004CEA010C49084FEA300092185B4150EA3E
:100540000107EDD152EA030012D082EA040083EAE7
:100550000501084305D0101BAB4106D20122002340
:1005600006E000224FF0004302E06FF0010253105A
:100570001AEB06004CEB085110EB0A0041EB0B01A3
:10058000BDE8F04D00F073B8C1F30A52C1F3130196
:1005900040F2FF3341F480119A4202DA0020014612
:1005A000704740F233439A42A2F2334202DC524295
:1005B00000F03BB800F02AB830B5041E71F1000419
:1005C00004DB4FF00044404264EB0101141E73F160
:1005D000000405DB1C464FF00043524263EB04036A
:1005E000994208BF904230BD064C074D06E0E068D6
:1005F00040F0010394E8070098471034AC42F6D36A
:10060000FFF7C6FDCC150008EC150008202A04DB16
:10061000203A00FA02F1002070479140C2F1200315
:1006200020FA03F3194390407047202A04DB203A54
:1006300021FA02F00021704721FA02F3D040C2F102
:1006400020029140084319467047202A06DBCB1749
:10065000203A41FA02F043EAE07306E041FA02F37D
:10066000D040C2F12002914008431946704710B5AE
:10067000141E73F1000408DA401C41F100019218C5
:100680005B411A4301D120F0010010BD2DE9F04D6E
:1006900092469B4611B1B1FA81F202E0B0FA80F2C3
:1006A00020329046FFF7B2FF04460F4640EA0A00A8
:1006B00041EA0B0153465A46084313D0114653EA08
:1006C000010019D0C8F140025046FFF7AEFF0546C1
:1006D0000E46504659464246FFF798FF084305D05C
:1006E000012004E020463946BDE8F08D0020054396
:1006F00046EAE0762C4337430A986305E40AA0EB08
:1007000008000022FD0A44EA47540A3002D50020BE
:100710000146E9E7010510196941DDE908450019BD
:100720006941BDE8F04DA2E7FEE770470A484FF483
:100730007A710068B0FBF1F0401EB0F1807F0AD200
:100740004FF0E0214861054AF02082F8140D0020A6
:100750008861072008617047040000200FE000E076
:100760000249086008680028FCD17047000000209A
:10077000F0B50023012403270D6804FA03F21540A5
:10078000954242D1D0F800C05E0007FA06F52CEA87
:10079000050CC0F800C091F804C0D0F800E00CFAD5
:1007A00006FC4CEA0E0CC0F800C091F804C0BCF185
:1007B000010F02D0BCF1020F1FD1D0F808C02CEA03
:1007C000050CC0F808C091F805C0D0F808E00CFA94
:1007D00006FC4CEA0E0CC0F808C0D0F804C02CEAA5
:1007E000020CC0F804C0426891F806C00CFA03FC81
:1007F0001FFA8CFC42EA0C024260C268AA43C26043
:10080000CA79C568B2402A43C2605B1C102BB3D3BF
:10081000F0BD4B07DB0E9A40C90810B500EB810014
:10082000016A0F249C40A1430162016A11430162E5
:1008300010BD4183704742694A4042617047FEE7FC
:100840001CB50121042000F031F800208DF80400CF
:1008500001218DF807108DF80500022000906946EF
:100860000148FFF785FF1CBD000802401CB50121AF
:10087000042000F01BF801208DF8040000218DF801
:1008800006108DF80700064C8DF80510009069469B
:100890002046FFF76DFF01212046FFF7CAFF1CBD70
:1008A00000080240FEE7704770470000044A002934
:1008B000116801D0014300E08143116070470000DE
:1008C00030380240044A0029116801D0014300E099
:1008D00081431160704700004438024070B5204ADF
:1008E0001168204C11F00C0104D06610042903D0CB
:1008F000082903D004601BE0066019E01849091FAD
:100900000B68C3F380550B6803F03F0315B1B6FBCA
:10091000F3F301E0B4FBF3F30C680968C4F3881443
:100920006343C1F30141491C4900B3FBF1F101608C
:1009300011680F2303EA11110B4B5C5C0168E14065
:1009400041601468072505EA94241C5D21FA04F42B
:100950008460126805EA52329A5CD140C16070BD71
:10096000083802400024F4001800002070470000FE
:100970000CB500202749019000900A6842F48032AB
:100980000A604FF4A0430A6802F400320092019A10
:10099000521C0192009A12B9019A9A42F3D10A6844
:1009A000920334D5012000901A484030026842F08A
:1009B000805202601848026842F4404202601548C2
:1009C000083002680260026842F400420260026875
:1009D00042F4A0520260031F104A1A600A6842F0F3
:1009E00080720A600A689201FCD50D4A40F20571D6
:1009F0001160016821F003010160016841F002010A
:100A000001600168C1F381010229FAD10CBD009097
:100A10000CBD000000380240007000400854400740
:100A2000003C024000F02EB8124810B5016841F4B5
:100A3000700101601048016841F0010101600E4A37
:100A400000210832116002680C4B1A400260031D3D
:100A50000B4A1A60026822F48022026006480C30B9
:100A60000160FFF785FF03494FF00060803908609F
:100A700010BD000088ED00E000380240FFFFF6FEE8
:100A80001030002403480168002902D00168491E83
:100A900001607047000000200029818902D041F4E4
:100AA000005101E021F40051818170471CB5012102
:100AB0000846FFF7FBFE02208DF8040000208DF8A9
:100AC000060001218DF807108DF8050048020B4C37
:100AD000009069462046FFF74BFE201500906946BE
:100AE0002046FFF745FE072209212046FFF791FE29
:100AF00007220A212046FFF78CFE1CBD00000240A1
:100B00000246002012880A4200D0012070470000EF
:100B10007FB50446008A0D4620F44051E88808431A
:100B20002082A08941F20C618843A9882A89114357
:100B30006A8902431143A181A08A20F44071A889E7
:100B40000843A0826846FFF7C9FE1A48844202D0D3
:100B50001948844201D1039800E00298A189090450
:100B600000EBC00101EB0010296801D5490000E04D
:100B70008900B0FBF1F26420B2FBF0F109010B092E
:100B80006FF018056B4302EB8302A3891D044FF03D
:100B9000320306D503EBC202B2FBF0F000F007000F
:100BA00005E003EB0212B2FBF0F000F00F00084387
:100BB00020817FBD0010014000140140C1F30801F5
:100BC00081807047FEE700001FB501211020FFF76C
:100BD00079FEFFF76BFF4FF4E13000900020ADF895
:100BE0000800ADF804000C21074CADF80600ADF884
:100BF0000A10ADF80C0069462046FFF789FF012175
:100C00002046FFF749FF1FBD001001400FB4054B00
:100C100010B503A9044A029800F0DAF810BC5DF898
:100C200014FB0000D91400082800002002E008C8C6
:100C3000121F08C1002AFAD170477047002001E056
:100C400001C1121F002AFBD1704700002DE9FF5F90
:100C500082B00021DDE90430020DDDF840B003432D
:100C600018D044F61050A2F2FF32424315141198E6
:100C700001281FD0A5EB0B00401C5FEA000A4FF0D3
:100C800000064E4FDFF83891B046504615D5CAF1F0
:100C9000000413E0119801244AA3012801D16FEA4E
:100CA0000B010298119AC0E90031C0E9024206B076
:100CB000BDE8F09FCBF10000DFE704460021404A89
:100CC000491842EB0450CDE9001012E0E00707D0CC
:100CD00032463B4640464946FFF775FB804689460B
:100CE00032463B4610461946FFF76DFB06460F4657
:100CF0006410002CEAD1DDE90401DDE90023BAF13A
:100D0000000F06DAFFF75FFB42464B46FFF75BFB3F
:100D100005E0FFF7CAFB42464B46FFF7C6FB044619
:100D20000E460022284BFFF747FC03D84FF0FF3058
:100D3000014607E00022254B20463146FFF79CFA8A
:100D4000FFF722FC102409E0002C0ADB0A22002312
:100D5000FFF761FA039B30321A55641E50EA010214
:100D6000F2D1641C039AC4F111031444119A012AAC
:100D700003D0012208430DD10AE0084304D000202B
:100D80004FF0110B119072E7A3EB0B056D1E0DE0F8
:100D90005B4504DD4FF0000205F1010504E003DAD4
:100DA0004FF00002A5F10105002AECD0029811993C
:100DB000C0E90231C0E9004579E7000000001440B5
:100DC0000000F03F300000000000F0430000E03F72
:100DD0002DE9FF4F95B09A46884606460025EEE17C
:100DE000252877D100242746F94A0121039400E001
:100DF000044316F8013F203B01FA03F01042F7D1FB
:100E000030782A2811D06FF02F033078A0F130020B
:100E1000092A16D8039A44F0020402EB820203EB7B
:100E200042021044761C0390EFE758F8042B03921B
:100E3000002A03DA504244F40054039044F00204C0
:100E4000761C30782E2816D116F8010F44F00404D1
:100E50002A280DD06FF02F023078A0F13003092B33
:100E600009D807EB870302EB4303C718761CF3E7A7
:100E700058F8047B761C30786C280FD006DC4C28A0
:100E800017D068280DD06A2814D104E0742810D037
:100E90007A280FD10DE044F400140AE044F48014E1
:100EA00001E044F440147278824202D104F58014C7
:100EB000761C761C307866280BD013DC582877D047
:100EC00009DC002875D04528F6D04628F4D04728FC
:100ED0001AD193E118E0632835D0642879D06528C9
:100EE00012D18BE1702873D008DC6728F1D0692813
:100EF0006FD06E280DD06F2806D1ACE073282CD0AF
:100F0000752874D0782853D05246179990476D1C95
:100F100054E1C4F30250022809D003280DD0D8F8B8
:100F2000001004280DD00D6008F1040846E1D8F83F
:100F30000010EA17C1E90052F6E7D8F800100D805A
:100F4000F2E70D70F0E718F8041B8DF80010002090
:100F50008DF80100EB46012003E058F804BB4FF088
:100F6000FF3061074FF0000102D40DE009F10101EB
:100F70008946B9420FDA8145F8DB1BF809100029D0
:100F8000F4D108E009F1010189468142FADB1BF83E
:100F900009100029F6D103985346A0EB0907214612
:100FA0003846179A00F080FA284400EB090507E05C
:100FB00044E008E10DE01BF8010B524617999047F9
:100FC000B9F10109F7D2534621463846179AF2E0A3
:100FD00039E00A21C4F302524FF0000B0091022ABB
:100FE00006D058F8040BC117032A09D00AE023E001
:100FF00008F1070020F00702F2E80201904605E040
:1010000000B2C117042A01D140B2C117002906DA83
:101010000A460021404261EB02012D2202E0220536
:1010200004D52B228DF80420012203E0E20701D031
:101030002022F7E7914657E00A2100E010214FF007
:10104000000B00910BE010214FF0000B44F0040462
:101050000827009103E008204FF0000B0090C4F334
:101060000252022A05D058F8040B0021032A08D0A6
:1010700008E008F1070020F00702F2E802019046BC
:1010800003E080B2042A00D1C0B24FF00009220769
:101090002AD53278702A07D0DDF800C08CF0100C09
:1010A0005CEA0B0C05D00EE040228DF804200122F2
:1010B00008E050EA010306D030238DF804308DF8A3
:1010C000052002229146009B83F0080353EA0B039C
:1010D0000AD150EA010201D1620705D530228DF80C
:1010E00004204FF001097F1E3278582A04D039A21B
:1010F0000C920CAA02920BE03BA2F9E75B46009A25
:10110000FFF789F80C9B9B5C029A521E02921370A7
:1011100050EA0102F2D1029804A9081A00F1200B4A
:10112000600702D524F4803400E001275F4502DD2A
:10113000A7EB0B0000E0002000EB0B0100900398F0
:101140004944401A0390E00306D453462146179AB7
:10115000039800F0A9F90544002706E001A85246CB
:10116000C05D179990476D1C7F1C4F45F6DBE0036F
:101170000CD553462146179A039800F095F905447B
:1011800004E030205246179990476D1C0099481E84
:1011900000900029F5DC08E0029802995246007898
:1011A000491C0291179990476D1CBBF10001ABF1EE
:1011B000010BF1DC5BE100F065F90544761C307849
:1011C00000287FF40DAE19B02846BDE8F08F00006E
:1011D000092801003031323334353637383961620D
:1011E00063646566000000003031323334353637D1
:1011F000383941424344454600000000600700D4AE
:10120000062708F1070020F00700F0E802238046D7
:1012100003F0004C5FEA0C0001D097A009E0200524
:1012200001D596A005E0E00701D095A001E0AFF25E
:101230004C001390307823F0004365280CD006DC76
:10124000452809D046281DD047287FD13BE0662895
:1012500018D067287AD136E00021112F01DB112048
:1012600000E0781CCDE9000104A90CA8FFF7EEFC12
:10127000DDE90D010C9A4FF0000B07F10109109206
:1012800000914EE04FF000400097CDE9011004A915
:101290000CA8FFF7DBFCDDE90D020C9B0F994FF06A
:1012A000000B91461093009211B9791C00EB0109D3
:1012B000B7EB090003D4C0F1FF3B07F10109A9EB2B
:1012C0000700019042E0012F00DA01270021112FD1
:1012D00001DD112000E03846CDE9000104A90CA889
:1012E000FFF7B4FCDDE90D010C9A00914FF0000B03
:1012F000B946109221070FD4009A4A4503DA914665
:1013000001E0A9F10109B9F1010F05DD109AA9F178
:101310000101515C3029F4D0B84202DA10F1040F17
:1013200003DA0121CDE9011010E0002803DC834439
:10133000A9EB000102E0411C494500DD8946A0EB14
:101340000B00401C01904FF000400290200705D494
:101350000198484502DB4FF0FF30019000208DF8E6
:101360004B0002980DF14B07B0F1004F25D0022041
:101370000C902B200D90029800280CDA404202902D
:101380002D200D9007E00A210298FEF72EFF303144
:10139000029007F8011D0C99481E0C900029F2DC00
:1013A00002980028EFD1791E0D980870307800F06F
:1013B000200040F0450007F8020D11A8C01BC01D19
:1013C00002901398007800B1012000EB0901019808
:1013D00001EBE071029801440398401A401E03900B
:1013E000E00306D453462146179A039800F05CF8B0
:1013F00005441398007818B15246179990476D1C10
:10140000E00323D553462146179A039800F04CF881
:1014100005441BE0BBF1000F07DB0098584504DDD5
:101420001098179910F80B0001E0179930205246D8
:10143000904701980BF1010B401E05F10105019049
:1014400004D12E205246179990476D1CB9F1000126
:10145000A9F10109DEDC05E017F8010B52461799E6
:1014600090476D1C0299481E02900029F4DC5346F7
:101470002146179A03989EE62D0000002B000000DD
:10148000200000002DE9F041044600251E461746C5
:10149000880404D405E039462020B0476D1C641E42
:1014A000F9D52846BDE8F0812DE9F0410446002534
:1014B0001E469046C80301D5302700E02027880447
:1014C00004D505E041463846B0476D1C641EF9D589
:1014D0002846BDE8F081000070B5074D0446C1B252
:1014E0002846FFF76BFB80212846FFF709FB002801
:1014F000F9D0204670BD0000001001402DED028B98
:1015000080249FED178AFFF711F9FFF7AFF9FFF776
:1015100097F9FFF759FB13A0FFF778FB16A0FFF729
:1015200075FB1A4D4FF4FA7601212846FFF783F92F
:101530003046FFF715F9214615A0FFF767FB214656
:1015400018A0FFF763FB18EE100AFEF73BFE41EC14
:10155000100B19A053EC102BFFF758FBE4E7000029
:10156000ADF9114153544D333220B4AEBFDACAB590
:10157000D1E9200D0A0000007072696E7466BAAF7E
:10158000CAFDB2E2CAD4200D0A00000000080240E1
:10159000CAAEBDF8D6C6B8F1CABDA3BA202025642C
:1015A0000D0A0000CAAEC1F9BDF8D6C6B8F1CABD71
:1015B000A3BA25780D0A0000D0A1CAFDB8F1CABDB2
:1015C000A3BA2020202025660D0A0000EC15000893
:1015D000000000202C0000002C0C00081816000849
:1015E0002C000020040400003C0C00080000000057
:1015F000007A030A0000000000000000010203045A
:1016000006070809000000000102030401020304A8
:081610000607080900000000B4
:040000050800018965
:00000001FF
